{
	"data": {
		"bytecode": {
			"linkReferences": {},
			"object": "60c060405234801561001057600080fd5b5060405162003658380380620036588339818101604052606081101561003557600080fd5b5080516020820151604092830151600080546001600160a01b031916331780825594519394929391926001600160a01b0316917fea8258f2d9ddb679928cf34b78cf645b7feda9acc828e4dd82d014eaae270eba908290a36001600160a01b0383166100a057600080fd5b6001600160601b031960609390931b929092166080526001600160a01b03166000818152600360205260408120805460ff191660019081179091556002805491820181559091527f405787fa12a823e0f2b7631cc41b3ba8828b3321ca811111fa75cd3aa3bb5ace0180546001600160a01b031916909117905560a05260805160601c60a0516134bf6200019960003980611e21528061206952806120c55280612121528061217f52806121e45280612240528061229e52806122fc528061235852806123b4525080610a7c5280610e2d5280610f3e5280610ff2528061140252806119895280611b175280611ce952506134bf6000f3fe608060405234801561001057600080fd5b506004361061030b5760003560e01c80638f59c7271161019d578063d031370b116100e9578063ebd83cd8116100a2578063fbfd393b1161007c578063fbfd393b14610936578063fc7b9c181461096d578063fd1ec01014610975578063fff9ee87146109925761030b565b8063ebd83cd8146108c4578063ee4e19a1146108ea578063fb939588146109105761030b565b8063d031370b146107f2578063d07f390f1461080f578063d1b317e514610817578063d796ffb814610843578063df89b3441461086f578063e83afee3146108955761030b565b8063a6c41fec11610156578063b5b1d56011610130578063b5b1d56014610757578063bc157ac114610774578063c24ad43e146107a6578063cd85641a146107cc5761030b565b8063a6c41fec14610703578063ab319c9a1461070b578063b1bd38b0146107315761030b565b80638f59c727146106465780638f6a7b571461066c5780638f840ddd14610689578063932cc8c314610691578063a1210a2d146106b7578063a569e571146106dd5761030b565b80632789de371161025c57806368c31dd51161021557806370a0502a116101ef57806370a0502a146105c0578063788c6c01146105dd578063869871bf1461060357806387d67dff146106205761030b565b806368c31dd5146105515780636a20de92146105775780636b5e40a7146105a35761030b565b80632789de37146104d05780632b7ce500146104d8578063437f7912146104e057806346f68ee9146104fd5780634e83423c146105235780635a96ac0a146105495761030b565b80630c3513a8116102c957806312422d23116102a357806312422d231461044a57806315079925146104765780631af4da701461047e5780631eec5a9a146104a45761030b565b80630c3513a8146103eb5780630f70431f146103f3578063124154ca146104105761030b565b8062f714ce146103105780630505c8c91461033e5780630619aff114610362578063089208d81461037f578063094a8651146103875780630b0eee30146103bf575b600080fd5b61033c6004803603604081101561032657600080fd5b50803590602001356001600160a01b03166109b8565b005b610346610b8f565b604080516001600160a01b039092168252519081900360200190f35b6103466004803603602081101561037857600080fd5b5035610b9e565b61033c610bc8565b6103ad6004803603602081101561039d57600080fd5b50356001600160a01b0316610c5f565b60408051918252519081900360200190f35b61033c600480360360408110156103d557600080fd5b506001600160a01b038135169060200135610c71565b6103ad610e20565b61033c6004803603602081101561040957600080fd5b5035610ec4565b6104366004803603602081101561042657600080fd5b50356001600160a01b0316611043565b604080519115158252519081900360200190f35b61033c6004803603604081101561046057600080fd5b50803590602001356001600160a01b0316611058565b610346611328565b6103466004803603602081101561049457600080fd5b50356001600160a01b0316611337565b6103ad600480360360408110156104ba57600080fd5b506001600160a01b038135169060200135611352565b6103ad611546565b61033c61154c565b610346600480360360208110156104f657600080fd5b503561170f565b61033c6004803603602081101561051357600080fd5b50356001600160a01b031661171f565b6104366004803603602081101561053957600080fd5b50356001600160a01b031661180c565b61033c611821565b6104366004803603602081101561056757600080fd5b50356001600160a01b03166118cb565b61033c6004803603604081101561058d57600080fd5b506001600160a01b0381351690602001356118e0565b610346600480360360208110156105b957600080fd5b5035611a5a565b610346600480360360208110156105d657600080fd5b5035611a6a565b6103ad600480360360208110156105f357600080fd5b50356001600160a01b0316611a7a565b6103466004803603602081101561061957600080fd5b5035611a8c565b6104366004803603602081101561063657600080fd5b50356001600160a01b0316611a9c565b6103ad6004803603602081101561065c57600080fd5b50356001600160a01b0316611ab1565b6103466004803603602081101561068257600080fd5b5035611ac3565b6103ad611ad3565b6103ad600480360360208110156106a757600080fd5b50356001600160a01b0316611ad9565b610436600480360360208110156106cd57600080fd5b50356001600160a01b0316611aeb565b610436600480360360208110156106f357600080fd5b50356001600160a01b0316611b00565b610346611b15565b6103ad6004803603602081101561072157600080fd5b50356001600160a01b0316611b39565b6103ad6004803603602081101561074757600080fd5b50356001600160a01b0316611b4b565b6103466004803603602081101561076d57600080fd5b5035611b5d565b6103ad6004803603606081101561078a57600080fd5b508035906001600160a01b036020820135169060400135611b6d565b6103ad600480360360208110156107bc57600080fd5b50356001600160a01b0316611deb565b6103ad600480360360208110156107e257600080fd5b50356001600160a01b0316611dfd565b6103466004803603602081101561080857600080fd5b5035611e0f565b6103ad611e1f565b6103ad6004803603604081101561082d57600080fd5b506001600160a01b038135169060200135611e43565b61033c6004803603604081101561085957600080fd5b50803590602001356001600160a01b0316611e56565b6104366004803603602081101561088557600080fd5b50356001600160a01b0316611fd9565b610436600480360360408110156108ab57600080fd5b50803560ff1690602001356001600160a01b0316611fee565b610436600480360360208110156108da57600080fd5b50356001600160a01b0316612439565b6104366004803603602081101561090057600080fd5b50356001600160a01b031661244e565b6103ad6004803603602081101561092657600080fd5b50356001600160a01b0316612463565b6104366004803603606081101561094c57600080fd5b5060ff813516906001600160a01b0360208201358116916040013516612475565b6103ad612d2f565b6103466004803603602081101561098b57600080fd5b5035612d35565b6103ad600480360360208110156109a857600080fd5b50356001600160a01b0316612d45565b6001600160a01b03811660009081526003602052604090205460ff16610a14576040805162461bcd60e51b815260206004820152600c60248201526b139bdd081858d8d95c1d195960a21b604482015290519081900360640190fd5b3360009081526009602052604090205460ff161515600114610a6c576040805162461bcd60e51b815260206004820152600c60248201526b139bdd08185c1c1c9bdd995960a21b604482015290519081900360640190fd5b6000610a788284611352565b90507f00000000000000000000000000000000000000000000000000000000000000006001600160a01b03166379cc679033836040518363ffffffff1660e01b815260040180836001600160a01b0316815260200182815260200192505050600060405180830381600087803b158015610af157600080fd5b505af1158015610b05573d6000803e3d6000fd5b5050602154610b179250905082612d57565b602181905560405160008051602061344083398151915290600090a2610b476001600160a01b0383163385612d99565b604080518481526020810183905281516001600160a01b038516927fdf273cb619d95419a9cd0ec88123a0538c85064229baa6363788f743fff90deb928290030190a2505050565b6000546001600160a01b031690565b60128181548110610bae57600080fd5b6000918252602090912001546001600160a01b0316905081565b6000546001600160a01b03163314610c15576040805162461bcd60e51b81526020600482018190526024820152600080516020613420833981519152604482015290519081900360640190fd5b600080546040516001600160a01b03909116907fea8258f2d9ddb679928cf34b78cf645b7feda9acc828e4dd82d014eaae270eba908390a3600080546001600160a01b0319169055565b601b6020526000908152604090205481565b6001600160a01b0382166000908152600c602052604090205460ff1615610cea573360009081526016602052604090205460ff16610ce5576040805162461bcd60e51b815260206004820152600c60248201526b139bdd08185c1c1c9bdd995960a21b604482015290519081900360640190fd5b610d3d565b3360009081526013602052604090205460ff16610d3d576040805162461bcd60e51b815260206004820152600c60248201526b139bdd08185c1c1c9bdd995960a21b604482015290519081900360640190fd5b6000610d498383611352565b9050610d53610e20565b811115610d9f576040805162461bcd60e51b8152602060048201526015602482015274496e73756666696369656e7420726573657276657360581b604482015290519081900360640190fd5b602154610dac9082612d57565b602181905560405160008051602061344083398151915290600090a2610ddc6001600160a01b0384163384612d99565b6040805183815290516001600160a01b038516917f2bb2640731848fe9820ba48dbc978c1fc9bbd5f11b948bfab05b7dee3378fd80919081900360200190a2505050565b6000610ebf610eb66022547f00000000000000000000000000000000000000000000000000000000000000006001600160a01b03166318160ddd6040518163ffffffff1660e01b815260040160206040518083038186803b158015610e8457600080fd5b505afa158015610e98573d6000803e3d6000fd5b505050506040513d6020811015610eae57600080fd5b505190612d57565b60215490612d57565b905090565b3360009081526019602052604090205460ff16610f17576040805162461bcd60e51b815260206004820152600c60248201526b139bdd08185c1c1c9bdd995960a21b604482015290519081900360640190fd5b6040805163079cc67960e41b81523360048201526024810183905290516001600160a01b037f000000000000000000000000000000000000000000000000000000000000000016916379cc679091604480830192600092919082900301818387803b158015610f8557600080fd5b505af1158015610f99573d6000803e3d6000fd5b5050336000908152601b6020526040902054610fb89250905082612d57565b336000908152601b6020526040902055602254610fd59082612d57565b602255604080518281526020810183905281516001600160a01b037f0000000000000000000000000000000000000000000000000000000000000000169233927fc6d98eecfc9c78ab62c89a82950079b54874749f1f6f24090f7acc758bc2f309929081900390910190a350565b60066020526000908152604090205460ff1681565b3360009081526019602052604090205460ff166110ab576040805162461bcd60e51b815260206004820152600c60248201526b139bdd08185c1c1c9bdd995960a21b604482015290519081900360640190fd5b6001600160a01b03811660009081526003602052604090205460ff16611107576040805162461bcd60e51b815260206004820152600c60248201526b139bdd081858d8d95c1d195960a21b604482015290519081900360640190fd5b60006111138284611352565b601f54604080516370a0823160e01b815233600482015290519293506000926001600160a01b03909216916370a0823191602480820192602092909190829003018186803b15801561116457600080fd5b505afa158015611178573d6000803e3d6000fd5b505050506040513d602081101561118e57600080fd5b5051336000908152601b6020526040812054919250906111af908390612d57565b9050808311156111fb576040805162461bcd60e51b8152602060048201526012602482015271115e18d959591cc81919589d081b1a5b5a5d60721b604482015290519081900360640190fd5b336000908152601b60205260409020546112159084612df0565b336000908152601b60205260409020556022546112329084612df0565b6022556021546112429084612d57565b602181905560405160008051602061344083398151915290600090a26040805163a9059cbb60e01b81523360048201526024810187905290516001600160a01b0386169163a9059cbb9160448083019260209291908290030181600087803b1580156112ad57600080fd5b505af11580156112c1573d6000803e3d6000fd5b505050506040513d60208110156112d757600080fd5b5050604080518681526020810185905281516001600160a01b0387169233927f7e1a939bed137a819b5d2979822c67f877689f7a863d5e4cb57cdca97b2977d6929081900390910190a35050505050565b601f546001600160a01b031681565b6011602052600090815260409020546001600160a01b031681565b6001600160a01b03821660009081526003602052604081205460ff161561148f57611488836001600160a01b031663313ce5676040518163ffffffff1660e01b815260040160206040518083038186803b1580156113af57600080fd5b505afa1580156113c3573d6000803e3d6000fd5b505050506040513d60208110156113d957600080fd5b50516040805163313ce56760e01b8152905160ff909216600a0a91611482916001600160a01b037f0000000000000000000000000000000000000000000000000000000000000000169163313ce56791600480820192602092909190829003018186803b15801561144957600080fd5b505afa15801561145d573d6000803e3d6000fd5b505050506040513d602081101561147357600080fd5b5051859060ff16600a0a612e4a565b90612ea3565b9050611540565b6001600160a01b0383166000908152600c602052604090205460ff1615611540576001600160a01b03808416600081815260116020908152604091829020548251634249719f60e01b815260048101949094526024840187905291519190931692634249719f9260448082019391829003018186803b15801561151157600080fd5b505afa158015611525573d6000803e3d6000fd5b505050506040513d602081101561153b57600080fd5b505190505b92915050565b60205481565b6000546001600160a01b03163314611599576040805162461bcd60e51b81526020600482018190526024820152600080516020613420833981519152604482015290519081900360640190fd5b6000805b60025481101561167157611667611660600283815481106115ba57fe5b600091825260209091200154600280546001600160a01b0390921691859081106115e057fe5b60009182526020918290200154604080516370a0823160e01b815230600482015290516001600160a01b03909216926370a0823192602480840193829003018186803b15801561162f57600080fd5b505afa158015611643573d6000803e3d6000fd5b505050506040513d602081101561165957600080fd5b5051611352565b8390612df0565b915060010161159d565b5060005b600b548110156116c2576116b8611660600b838154811061169257fe5b600091825260209091200154600b80546001600160a01b0390921691859081106115e057fe5b9150600101611675565b506021819055604051819060008051602061344083398151915290600090a260405181907fec691f09f6924b27932253f85caf99bacc30360cc0e50a1cc4d2acc24601446690600090a250565b60088181548110610bae57600080fd5b6000546001600160a01b0316331461176c576040805162461bcd60e51b81526020600482018190526024820152600080516020613420833981519152604482015290519081900360640190fd5b6001600160a01b0381166117b15760405162461bcd60e51b81526004018080602001828103825260268152602001806133b76026913960400191505060405180910390fd5b600080546040516001600160a01b03808516939216917fea8258f2d9ddb679928cf34b78cf645b7feda9acc828e4dd82d014eaae270eba91a3600180546001600160a01b0319166001600160a01b0392909216919091179055565b601d6020526000908152604090205460ff1681565b6001546001600160a01b0316331461186a5760405162461bcd60e51b81526004018080602001828103825260228152602001806133dd6022913960400191505060405180910390fd5b600154600080546040516001600160a01b0393841693909116917faa151555690c956fc3ea32f106bb9f119b5237a061eaa8557cff3e51e3792c8d91a3600154600080546001600160a01b0319166001600160a01b03909216919091179055565b60036020526000908152604090205460ff1681565b336000908152601d602052604090205460ff16611933576040805162461bcd60e51b815260206004820152600c60248201526b139bdd08185c1c1c9bdd995960a21b604482015290519081900360640190fd5b61193b610e20565b811115611987576040805162461bcd60e51b8152602060048201526015602482015274496e73756666696369656e7420726573657276657360581b604482015290519081900360640190fd5b7f00000000000000000000000000000000000000000000000000000000000000006001600160a01b03166340c10f1983836040518363ffffffff1660e01b815260040180836001600160a01b0316815260200182815260200192505050600060405180830381600087803b1580156119fe57600080fd5b505af1158015611a12573d6000803e3d6000fd5b50506040805184815290516001600160a01b03861693503392507ffa8ccab40e7da8146c2304cd0950334fd30a6ba093abe86261aa13911fed849c9181900360200190a35050565b60058181548110610bae57600080fd5b60158181548110610bae57600080fd5b60046020526000908152604090205481565b60188181548110610bae57600080fd5b60096020526000908152604090205460ff1681565b600d6020526000908152604090205481565b600e8181548110610bae57600080fd5b60215481565b60076020526000908152604090205481565b600f6020526000908152604090205460ff1681565b600c6020526000908152604090205460ff1681565b7f000000000000000000000000000000000000000000000000000000000000000081565b60176020526000908152604090205481565b60146020526000908152604090205481565b601c8181548110610bae57600080fd5b6001600160a01b03821660009081526003602052604081205460ff1680611bac57506001600160a01b0383166000908152600c602052604090205460ff165b611bec576040805162461bcd60e51b815260206004820152600c60248201526b139bdd081858d8d95c1d195960a21b604482015290519081900360640190fd5b611c016001600160a01b038416333087612ee5565b6001600160a01b03831660009081526003602052604090205460ff1615611c7a573360009081526006602052604090205460ff16611c75576040805162461bcd60e51b815260206004820152600c60248201526b139bdd08185c1c1c9bdd995960a21b604482015290519081900360640190fd5b611ccd565b336000908152600f602052604090205460ff16611ccd576040805162461bcd60e51b815260206004820152600c60248201526b139bdd08185c1c1c9bdd995960a21b604482015290519081900360640190fd5b6000611cd98486611352565b9050611ce58184612d57565b91507f00000000000000000000000000000000000000000000000000000000000000006001600160a01b03166340c10f1933846040518363ffffffff1660e01b815260040180836001600160a01b0316815260200182815260200192505050600060405180830381600087803b158015611d5e57600080fd5b505af1158015611d72573d6000803e3d6000fd5b5050602154611d849250905082612df0565b602181905560405160008051602061344083398151915290600090a2604080518681526020810183905281516001600160a01b038716927f90890809c654f11d6e72a28fa60149770a0d11ec6c92319d6ceb2bb0a4ea1a15928290030190a2509392505050565b600a6020526000908152604090205481565b601a6020526000908152604090205481565b60028181548110610bae57600080fd5b7f000000000000000000000000000000000000000000000000000000000000000081565b6000611e4f8383611352565b9392505050565b3360009081526019602052604090205460ff16611ea9576040805162461bcd60e51b815260206004820152600c60248201526b139bdd08185c1c1c9bdd995960a21b604482015290519081900360640190fd5b6001600160a01b03811660009081526003602052604090205460ff16611f05576040805162461bcd60e51b815260206004820152600c60248201526b139bdd081858d8d95c1d195960a21b604482015290519081900360640190fd5b611f1a6001600160a01b038216333085612ee5565b6000611f268284611352565b336000908152601b6020526040902054909150611f439082612d57565b336000908152601b6020526040902055602254611f609082612d57565b602255602154611f709082612df0565b602181905560405160008051602061344083398151915290600090a2604080518481526020810183905281516001600160a01b0385169233927fc6d98eecfc9c78ab62c89a82950079b54874749f1f6f24090f7acc758bc2f309929081900390910190a3505050565b60166020526000908152604090205460ff1681565b600080546001600160a01b0316331461203c576040805162461bcd60e51b81526020600482018190526024820152600080516020613420833981519152604482015290519081900360640190fd5b6001600160a01b03821661204f57600080fd5b600083600981111561205d57fe5b14156120ab5761208d437f0000000000000000000000000000000000000000000000000000000000000000612df0565b6001600160a01b0383166000908152600760205260409020556123e8565b60018360098111156120b957fe5b1415612107576120e9437f0000000000000000000000000000000000000000000000000000000000000000612df0565b6001600160a01b0383166000908152600a60205260409020556123e8565b600283600981111561211557fe5b141561216357612145437f0000000000000000000000000000000000000000000000000000000000000000612df0565b6001600160a01b0383166000908152600460205260409020556123e8565b600383600981111561217157fe5b14156121ca576121ac6121a57f00000000000000000000000000000000000000000000000000000000000000006002612e4a565b4390612df0565b6001600160a01b0383166000908152601460205260409020556123e8565b60048360098111156121d857fe5b141561222657612208437f0000000000000000000000000000000000000000000000000000000000000000612df0565b6001600160a01b0383166000908152601060205260409020556123e8565b600583600981111561223457fe5b141561228257612264437f0000000000000000000000000000000000000000000000000000000000000000612df0565b6001600160a01b0383166000908152600d60205260409020556123e8565b600683600981111561229057fe5b14156122e2576122c46121a57f00000000000000000000000000000000000000000000000000000000000000006002612e4a565b6001600160a01b0383166000908152601760205260409020556123e8565b60078360098111156122f057fe5b141561233e57612320437f0000000000000000000000000000000000000000000000000000000000000000612df0565b6001600160a01b0383166000908152601a60205260409020556123e8565b600883600981111561234c57fe5b141561239a5761237c437f0000000000000000000000000000000000000000000000000000000000000000612df0565b6001600160a01b0383166000908152601e60205260409020556123e8565b60098360098111156123a857fe5b14156123e0576123d8437f0000000000000000000000000000000000000000000000000000000000000000612df0565b6020556123e8565b506000611540565b8260098111156123f457fe5b604080516001600160a01b038516815290517f0e4f2c4b5bc209d509bc3d49348c787fefadc66a79351b470599ac0f5be52eaf9181900360200190a250600192915050565b60136020526000908152604090205460ff1681565b60196020526000908152604090205460ff1681565b601e6020526000908152604090205481565b600080546001600160a01b031633146124c3576040805162461bcd60e51b81526020600482018190526024820152600080516020613420833981519152604482015290519081900360640190fd5b6001600160a01b0383166124d657600080fd5b6000808560098111156124e557fe5b14156125a1576124f86007600686612f45565b15612571576001600160a01b03841660009081526007602052604081205561252160058561302f565b61257157600580546001810182556000919091527f036b6384b5eca791c62761152d0c79bb0604c104a5fb6f4eb0703f3154bb3db00180546001600160a01b0319166001600160a01b0386161790555b506001600160a01b0383166000908152600660205260409020805460ff81161560ff199091168117909155612cd3565b60018560098111156125af57fe5b141561266b576125c2600a600986612f45565b1561263b576001600160a01b0384166000908152600a60205260408120556125eb60088561302f565b61263b57600880546001810182556000919091527ff3f7a9fe364faab93b216da50a3214154f22a0a2b415b23a84c8169e8b636ee30180546001600160a01b0319166001600160a01b0386161790555b506001600160a01b0383166000908152600960205260409020805460ff81161560ff199091168117909155612cd3565b600285600981111561267957fe5b14156127355761268c6004600386612f45565b15612705576001600160a01b0384166000908152600460205260408120556126b560028561302f565b61270557600280546001810182556000919091527f405787fa12a823e0f2b7631cc41b3ba8828b3321ca811111fa75cd3aa3bb5ace0180546001600160a01b0319166001600160a01b0386161790555b506001600160a01b0383166000908152600360205260409020805460ff81161560ff199091168117909155612cd3565b600385600981111561274357fe5b141561283c576127566014601386612f45565b1561280c57601280546001810182557fbb8a6a4669ba250d26cd7a459eca9d215f8307e33aebe50379bc5a3617ec34440180546001600160a01b0319166001600160a01b0387169081179091556000908152601460205260408120556127bc908561302f565b61280c57601280546001810182556000919091527fbb8a6a4669ba250d26cd7a459eca9d215f8307e33aebe50379bc5a3617ec34440180546001600160a01b0319166001600160a01b0386161790555b506001600160a01b0383166000908152601360205260409020805460ff81161560ff199091168117909155612cd3565b600485600981111561284a57fe5b14156129435761285d6010600f86612f45565b1561291357600e80546001810182557fbb7b4a454dc3493923482f07822329ed19e8244eff582cc204f8554c3620c3fd0180546001600160a01b0319166001600160a01b0387169081179091556000908152601060205260408120556128c3908561302f565b61291357600e80546001810182556000919091527fbb7b4a454dc3493923482f07822329ed19e8244eff582cc204f8554c3620c3fd0180546001600160a01b0319166001600160a01b0386161790555b506001600160a01b0383166000908152600f60205260409020805460ff81161560ff199091168117909155612cd3565b600585600981111561295157fe5b1415612a2f57612964600d600c86612f45565b156129dd576001600160a01b0384166000908152600d602052604081205561298d600b8561302f565b6129dd57600b80546001810182556000919091527f0175b7a638427703f0dbe7bb9bbf987a2551717b34e79f33b5b1008d1fa01db90180546001600160a01b0319166001600160a01b0386161790555b506001600160a01b038381166000908152600c60209081526040808320805460ff81161560ff199091168117909155601190925290912080546001600160a01b03191692851692909217909155612cd3565b6006856009811115612a3d57fe5b1415612af957612a506017601686612f45565b15612ac9576001600160a01b038416600090815260176020526040812055612a7960158561302f565b612ac957601580546001810182556000919091527f55f448fdea98c4d29eb340757ef0a66cd03dbb9538908a6a81d96026b71ec4750180546001600160a01b0319166001600160a01b0386161790555b506001600160a01b0383166000908152601660205260409020805460ff81161560ff199091168117909155612cd3565b6007856009811115612b0757fe5b1415612bc357612b1a601a601986612f45565b15612b93576001600160a01b0384166000908152601a6020526040812055612b4360188561302f565b612b9357601880546001810182556000919091527fb13d2d76d1f4b7be834882e410b3e3a8afaf69f83600ae24db354391d2378d2e0180546001600160a01b0319166001600160a01b0386161790555b506001600160a01b0383166000908152601960205260409020805460ff81161560ff199091168117909155612cd3565b6008856009811115612bd157fe5b1415612c8d57612be4601e601d86612f45565b15612c5d576001600160a01b0384166000908152601e6020526040812055612c0d601c8561302f565b612c5d57601c80546001810182556000919091527f0e4562a10381dec21b205ed72637e6b1b523bdd0e4d4d50af5cd23dd4500a2110180546001600160a01b0319166001600160a01b0386161790555b506001600160a01b0383166000908152601d60205260409020805460ff81161560ff199091168117909155612cd3565b6009856009811115612c9b57fe5b1415612cc957506000602055601f80546001600160a01b0319166001600160a01b0385161790556001612cd3565b6000915050611e4f565b846009811115612cdf57fe5b604080516001600160a01b0387168152831515602082015281517f0dcacb7e392f3d6a216ed2660e3dcfd40b7793d33591db2ba185a6b8e44fc477929181900390910190a2506001949350505050565b60225481565b600b8181548110610bae57600080fd5b60106020526000908152604090205481565b6000611e4f83836040518060400160405280601e81526020017f536166654d6174683a207375627472616374696f6e206f766572666c6f77000081525061307f565b604080516001600160a01b038416602482015260448082018490528251808303909101815260649091019091526020810180516001600160e01b031663a9059cbb60e01b179052612deb908490613116565b505050565b600082820183811015611e4f576040805162461bcd60e51b815260206004820152601b60248201527f536166654d6174683a206164646974696f6e206f766572666c6f770000000000604482015290519081900360640190fd5b600082612e5957506000611540565b82820282848281612e6657fe5b0414611e4f5760405162461bcd60e51b81526004018080602001828103825260218152602001806133ff6021913960400191505060405180910390fd5b6000611e4f83836040518060400160405280601a81526020017f536166654d6174683a206469766973696f6e206279207a65726f0000000000008152506131c7565b604080516001600160a01b0380861660248301528416604482015260648082018490528251808303909101815260849091019091526020810180516001600160e01b03166323b872dd60e01b179052612f3f908590613116565b50505050565b6001600160a01b03811660009081526020839052604081205460ff16613025576001600160a01b038216600090815260208590526040902054612fbc576040805162461bcd60e51b815260206004820152600a6024820152694d75737420717565756560b01b604482015290519081900360640190fd5b6001600160a01b03821660009081526020859052604090205443101561301d576040805162461bcd60e51b8152602060048201526011602482015270145d595d59481b9bdd08195e1c1a5c9959607a1b604482015290519081900360640190fd5b506001611e4f565b5060009392505050565b6000805b835481101561302557826001600160a01b031684828154811061305257fe5b6000918252602090912001546001600160a01b03161415613077576001915050611540565b600101613033565b6000818484111561310e5760405162461bcd60e51b81526004018080602001828103825283818151815260200191508051906020019080838360005b838110156130d35781810151838201526020016130bb565b50505050905090810190601f1680156131005780820380516001836020036101000a031916815260200191505b509250505060405180910390fd5b505050900390565b606061316b826040518060400160405280602081526020017f5361666545524332303a206c6f772d6c6576656c2063616c6c206661696c6564815250856001600160a01b031661322c9092919063ffffffff16565b805190915015612deb5780806020019051602081101561318a57600080fd5b5051612deb5760405162461bcd60e51b815260040180806020018281038252602a815260200180613460602a913960400191505060405180910390fd5b600081836132165760405162461bcd60e51b81526020600482018181528351602484015283519092839260449091019190850190808383600083156130d35781810151838201526020016130bb565b50600083858161322257fe5b0495945050505050565b606061323b8484600085613243565b949350505050565b606061324e856133b0565b61329f576040805162461bcd60e51b815260206004820152601d60248201527f416464726573733a2063616c6c20746f206e6f6e2d636f6e7472616374000000604482015290519081900360640190fd5b60006060866001600160a01b031685876040518082805190602001908083835b602083106132de5780518252601f1990920191602091820191016132bf565b6001836020036101000a03801982511681845116808217855250505050505090500191505060006040518083038185875af1925050503d8060008114613340576040519150601f19603f3d011682016040523d82523d6000602084013e613345565b606091505b5091509150811561335957915061323b9050565b8051156133695780518082602001fd5b60405162461bcd60e51b81526020600482018181528651602484015286518793919283926044019190850190808383600083156130d35781810151838201526020016130bb565b3b15159056fe4f776e61626c653a206e6577206f776e657220697320746865207a65726f20616464726573734f776e61626c653a206d757374206265206e6577206f776e657220746f2070756c6c536166654d6174683a206d756c7469706c69636174696f6e206f766572666c6f774f776e61626c653a2063616c6c6572206973206e6f7420746865206f776e657293bb8edd35984706eee1b92541281f7f62d33c01c5b2ec0929a113603bd21d665361666545524332303a204552433230206f7065726174696f6e20646964206e6f742073756363656564a2646970667358221220fe2ca38264adb3c95b004cb7f69d3f8802b45d6fa7b4ff6fdfc3dd6ab2672cfd64736f6c63430007050033",
			"opcodes": "PUSH1 0xC0 PUSH1 0x40 MSTORE CALLVALUE DUP1 ISZERO PUSH2 0x10 JUMPI PUSH1 0x0 DUP1 REVERT JUMPDEST POP PUSH1 0x40 MLOAD PUSH3 0x3658 CODESIZE SUB DUP1 PUSH3 0x3658 DUP4 CODECOPY DUP2 DUP2 ADD PUSH1 0x40 MSTORE PUSH1 0x60 DUP2 LT ISZERO PUSH2 0x35 JUMPI PUSH1 0x0 DUP1 REVERT JUMPDEST POP DUP1 MLOAD PUSH1 0x20 DUP3 ADD MLOAD PUSH1 0x40 SWAP3 DUP4 ADD MLOAD PUSH1 0x0 DUP1 SLOAD PUSH1 0x1 PUSH1 0x1 PUSH1 0xA0 SHL SUB NOT AND CALLER OR DUP1 DUP3 SSTORE SWAP5 MLOAD SWAP4 SWAP5 SWAP3 SWAP4 SWAP2 SWAP3 PUSH1 0x1 PUSH1 0x1 PUSH1 0xA0 SHL SUB AND SWAP2 PUSH32 0xEA8258F2D9DDB679928CF34B78CF645B7FEDA9ACC828E4DD82D014EAAE270EBA SWAP1 DUP3 SWAP1 LOG3 PUSH1 0x1 PUSH1 0x1 PUSH1 0xA0 SHL SUB DUP4 AND PUSH2 0xA0 JUMPI PUSH1 0x0 DUP1 REVERT JUMPDEST PUSH1 0x1 PUSH1 0x1 PUSH1 0x60 SHL SUB NOT PUSH1 0x60 SWAP4 SWAP1 SWAP4 SHL SWAP3 SWAP1 SWAP3 AND PUSH1 0x80 MSTORE PUSH1 0x1 PUSH1 0x1 PUSH1 0xA0 SHL SUB AND PUSH1 0x0 DUP2 DUP2 MSTORE PUSH1 0x3 PUSH1 0x20 MSTORE PUSH1 0x40 DUP2 KECCAK256 DUP1 SLOAD PUSH1 0xFF NOT AND PUSH1 0x1 SWAP1 DUP2 OR SWAP1 SWAP2 SSTORE PUSH1 0x2 DUP1 SLOAD SWAP2 DUP3 ADD DUP2 SSTORE SWAP1 SWAP2 MSTORE PUSH32 0x405787FA12A823E0F2B7631CC41B3BA8828B3321CA811111FA75CD3AA3BB5ACE ADD DUP1 SLOAD PUSH1 0x1 PUSH1 0x1 PUSH1 0xA0 SHL SUB NOT AND SWAP1 SWAP2 OR SWAP1 SSTORE PUSH1 0xA0 MSTORE PUSH1 0x80 MLOAD PUSH1 0x60 SHR PUSH1 0xA0 MLOAD PUSH2 0x34BF PUSH3 0x199 PUSH1 0x0 CODECOPY DUP1 PUSH2 0x1E21 MSTORE DUP1 PUSH2 0x2069 MSTORE DUP1 PUSH2 0x20C5 MSTORE DUP1 PUSH2 0x2121 MSTORE DUP1 PUSH2 0x217F MSTORE DUP1 PUSH2 0x21E4 MSTORE DUP1 PUSH2 0x2240 MSTORE DUP1 PUSH2 0x229E MSTORE DUP1 PUSH2 0x22FC MSTORE DUP1 PUSH2 0x2358 MSTORE DUP1 PUSH2 0x23B4 MSTORE POP DUP1 PUSH2 0xA7C MSTORE DUP1 PUSH2 0xE2D MSTORE DUP1 PUSH2 0xF3E MSTORE DUP1 PUSH2 0xFF2 MSTORE DUP1 PUSH2 0x1402 MSTORE DUP1 PUSH2 0x1989 MSTORE DUP1 PUSH2 0x1B17 MSTORE DUP1 PUSH2 0x1CE9 MSTORE POP PUSH2 0x34BF PUSH1 0x0 RETURN INVALID PUSH1 0x80 PUSH1 0x40 MSTORE CALLVALUE DUP1 ISZERO PUSH2 0x10 JUMPI PUSH1 0x0 DUP1 REVERT JUMPDEST POP PUSH1 0x4 CALLDATASIZE LT PUSH2 0x30B JUMPI PUSH1 0x0 CALLDATALOAD PUSH1 0xE0 SHR DUP1 PUSH4 0x8F59C727 GT PUSH2 0x19D JUMPI DUP1 PUSH4 0xD031370B GT PUSH2 0xE9 JUMPI DUP1 PUSH4 0xEBD83CD8 GT PUSH2 0xA2 JUMPI DUP1 PUSH4 0xFBFD393B GT PUSH2 0x7C JUMPI DUP1 PUSH4 0xFBFD393B EQ PUSH2 0x936 JUMPI DUP1 PUSH4 0xFC7B9C18 EQ PUSH2 0x96D JUMPI DUP1 PUSH4 0xFD1EC010 EQ PUSH2 0x975 JUMPI DUP1 PUSH4 0xFFF9EE87 EQ PUSH2 0x992 JUMPI PUSH2 0x30B JUMP JUMPDEST DUP1 PUSH4 0xEBD83CD8 EQ PUSH2 0x8C4 JUMPI DUP1 PUSH4 0xEE4E19A1 EQ PUSH2 0x8EA JUMPI DUP1 PUSH4 0xFB939588 EQ PUSH2 0x910 JUMPI PUSH2 0x30B JUMP JUMPDEST DUP1 PUSH4 0xD031370B EQ PUSH2 0x7F2 JUMPI DUP1 PUSH4 0xD07F390F EQ PUSH2 0x80F JUMPI DUP1 PUSH4 0xD1B317E5 EQ PUSH2 0x817 JUMPI DUP1 PUSH4 0xD796FFB8 EQ PUSH2 0x843 JUMPI DUP1 PUSH4 0xDF89B344 EQ PUSH2 0x86F JUMPI DUP1 PUSH4 0xE83AFEE3 EQ PUSH2 0x895 JUMPI PUSH2 0x30B JUMP JUMPDEST DUP1 PUSH4 0xA6C41FEC GT PUSH2 0x156 JUMPI DUP1 PUSH4 0xB5B1D560 GT PUSH2 0x130 JUMPI DUP1 PUSH4 0xB5B1D560 EQ PUSH2 0x757 JUMPI DUP1 PUSH4 0xBC157AC1 EQ PUSH2 0x774 JUMPI DUP1 PUSH4 0xC24AD43E EQ PUSH2 0x7A6 JUMPI DUP1 PUSH4 0xCD85641A EQ PUSH2 0x7CC JUMPI PUSH2 0x30B JUMP JUMPDEST DUP1 PUSH4 0xA6C41FEC EQ PUSH2 0x703 JUMPI DUP1 PUSH4 0xAB319C9A EQ PUSH2 0x70B JUMPI DUP1 PUSH4 0xB1BD38B0 EQ PUSH2 0x731 JUMPI PUSH2 0x30B JUMP JUMPDEST DUP1 PUSH4 0x8F59C727 EQ PUSH2 0x646 JUMPI DUP1 PUSH4 0x8F6A7B57 EQ PUSH2 0x66C JUMPI DUP1 PUSH4 0x8F840DDD EQ PUSH2 0x689 JUMPI DUP1 PUSH4 0x932CC8C3 EQ PUSH2 0x691 JUMPI DUP1 PUSH4 0xA1210A2D EQ PUSH2 0x6B7 JUMPI DUP1 PUSH4 0xA569E571 EQ PUSH2 0x6DD JUMPI PUSH2 0x30B JUMP JUMPDEST DUP1 PUSH4 0x2789DE37 GT PUSH2 0x25C JUMPI DUP1 PUSH4 0x68C31DD5 GT PUSH2 0x215 JUMPI DUP1 PUSH4 0x70A0502A GT PUSH2 0x1EF JUMPI DUP1 PUSH4 0x70A0502A EQ PUSH2 0x5C0 JUMPI DUP1 PUSH4 0x788C6C01 EQ PUSH2 0x5DD JUMPI DUP1 PUSH4 0x869871BF EQ PUSH2 0x603 JUMPI DUP1 PUSH4 0x87D67DFF EQ PUSH2 0x620 JUMPI PUSH2 0x30B JUMP JUMPDEST DUP1 PUSH4 0x68C31DD5 EQ PUSH2 0x551 JUMPI DUP1 PUSH4 0x6A20DE92 EQ PUSH2 0x577 JUMPI DUP1 PUSH4 0x6B5E40A7 EQ PUSH2 0x5A3 JUMPI PUSH2 0x30B JUMP JUMPDEST DUP1 PUSH4 0x2789DE37 EQ PUSH2 0x4D0 JUMPI DUP1 PUSH4 0x2B7CE500 EQ PUSH2 0x4D8 JUMPI DUP1 PUSH4 0x437F7912 EQ PUSH2 0x4E0 JUMPI DUP1 PUSH4 0x46F68EE9 EQ PUSH2 0x4FD JUMPI DUP1 PUSH4 0x4E83423C EQ PUSH2 0x523 JUMPI DUP1 PUSH4 0x5A96AC0A EQ PUSH2 0x549 JUMPI PUSH2 0x30B JUMP JUMPDEST DUP1 PUSH4 0xC3513A8 GT PUSH2 0x2C9 JUMPI DUP1 PUSH4 0x12422D23 GT PUSH2 0x2A3 JUMPI DUP1 PUSH4 0x12422D23 EQ PUSH2 0x44A JUMPI DUP1 PUSH4 0x15079925 EQ PUSH2 0x476 JUMPI DUP1 PUSH4 0x1AF4DA70 EQ PUSH2 0x47E JUMPI DUP1 PUSH4 0x1EEC5A9A EQ PUSH2 0x4A4 JUMPI PUSH2 0x30B JUMP JUMPDEST DUP1 PUSH4 0xC3513A8 EQ PUSH2 0x3EB JUMPI DUP1 PUSH4 0xF70431F EQ PUSH2 0x3F3 JUMPI DUP1 PUSH4 0x124154CA EQ PUSH2 0x410 JUMPI PUSH2 0x30B JUMP JUMPDEST DUP1 PUSH3 0xF714CE EQ PUSH2 0x310 JUMPI DUP1 PUSH4 0x505C8C9 EQ PUSH2 0x33E JUMPI DUP1 PUSH4 0x619AFF1 EQ PUSH2 0x362 JUMPI DUP1 PUSH4 0x89208D8 EQ PUSH2 0x37F JUMPI DUP1 PUSH4 0x94A8651 EQ PUSH2 0x387 JUMPI DUP1 PUSH4 0xB0EEE30 EQ PUSH2 0x3BF JUMPI JUMPDEST PUSH1 0x0 DUP1 REVERT JUMPDEST PUSH2 0x33C PUSH1 0x4 DUP1 CALLDATASIZE SUB PUSH1 0x40 DUP2 LT ISZERO PUSH2 0x326 JUMPI PUSH1 0x0 DUP1 REVERT JUMPDEST POP DUP1 CALLDATALOAD SWAP1 PUSH1 0x20 ADD CALLDATALOAD PUSH1 0x1 PUSH1 0x1 PUSH1 0xA0 SHL SUB AND PUSH2 0x9B8 JUMP JUMPDEST STOP JUMPDEST PUSH2 0x346 PUSH2 0xB8F JUMP JUMPDEST PUSH1 0x40 DUP1 MLOAD PUSH1 0x1 PUSH1 0x1 PUSH1 0xA0 SHL SUB SWAP1 SWAP3 AND DUP3 MSTORE MLOAD SWAP1 DUP2 SWAP1 SUB PUSH1 0x20 ADD SWAP1 RETURN JUMPDEST PUSH2 0x346 PUSH1 0x4 DUP1 CALLDATASIZE SUB PUSH1 0x20 DUP2 LT ISZERO PUSH2 0x378 JUMPI PUSH1 0x0 DUP1 REVERT JUMPDEST POP CALLDATALOAD PUSH2 0xB9E JUMP JUMPDEST PUSH2 0x33C PUSH2 0xBC8 JUMP JUMPDEST PUSH2 0x3AD PUSH1 0x4 DUP1 CALLDATASIZE SUB PUSH1 0x20 DUP2 LT ISZERO PUSH2 0x39D JUMPI PUSH1 0x0 DUP1 REVERT JUMPDEST POP CALLDATALOAD PUSH1 0x1 PUSH1 0x1 PUSH1 0xA0 SHL SUB AND PUSH2 0xC5F JUMP JUMPDEST PUSH1 0x40 DUP1 MLOAD SWAP2 DUP3 MSTORE MLOAD SWAP1 DUP2 SWAP1 SUB PUSH1 0x20 ADD SWAP1 RETURN JUMPDEST PUSH2 0x33C PUSH1 0x4 DUP1 CALLDATASIZE SUB PUSH1 0x40 DUP2 LT ISZERO PUSH2 0x3D5 JUMPI PUSH1 0x0 DUP1 REVERT JUMPDEST POP PUSH1 0x1 PUSH1 0x1 PUSH1 0xA0 SHL SUB DUP2 CALLDATALOAD AND SWAP1 PUSH1 0x20 ADD CALLDATALOAD PUSH2 0xC71 JUMP JUMPDEST PUSH2 0x3AD PUSH2 0xE20 JUMP JUMPDEST PUSH2 0x33C PUSH1 0x4 DUP1 CALLDATASIZE SUB PUSH1 0x20 DUP2 LT ISZERO PUSH2 0x409 JUMPI PUSH1 0x0 DUP1 REVERT JUMPDEST POP CALLDATALOAD PUSH2 0xEC4 JUMP JUMPDEST PUSH2 0x436 PUSH1 0x4 DUP1 CALLDATASIZE SUB PUSH1 0x20 DUP2 LT ISZERO PUSH2 0x426 JUMPI PUSH1 0x0 DUP1 REVERT JUMPDEST POP CALLDATALOAD PUSH1 0x1 PUSH1 0x1 PUSH1 0xA0 SHL SUB AND PUSH2 0x1043 JUMP JUMPDEST PUSH1 0x40 DUP1 MLOAD SWAP2 ISZERO ISZERO DUP3 MSTORE MLOAD SWAP1 DUP2 SWAP1 SUB PUSH1 0x20 ADD SWAP1 RETURN JUMPDEST PUSH2 0x33C PUSH1 0x4 DUP1 CALLDATASIZE SUB PUSH1 0x40 DUP2 LT ISZERO PUSH2 0x460 JUMPI PUSH1 0x0 DUP1 REVERT JUMPDEST POP DUP1 CALLDATALOAD SWAP1 PUSH1 0x20 ADD CALLDATALOAD PUSH1 0x1 PUSH1 0x1 PUSH1 0xA0 SHL SUB AND PUSH2 0x1058 JUMP JUMPDEST PUSH2 0x346 PUSH2 0x1328 JUMP JUMPDEST PUSH2 0x346 PUSH1 0x4 DUP1 CALLDATASIZE SUB PUSH1 0x20 DUP2 LT ISZERO PUSH2 0x494 JUMPI PUSH1 0x0 DUP1 REVERT JUMPDEST POP CALLDATALOAD PUSH1 0x1 PUSH1 0x1 PUSH1 0xA0 SHL SUB AND PUSH2 0x1337 JUMP JUMPDEST PUSH2 0x3AD PUSH1 0x4 DUP1 CALLDATASIZE SUB PUSH1 0x40 DUP2 LT ISZERO PUSH2 0x4BA JUMPI PUSH1 0x0 DUP1 REVERT JUMPDEST POP PUSH1 0x1 PUSH1 0x1 PUSH1 0xA0 SHL SUB DUP2 CALLDATALOAD AND SWAP1 PUSH1 0x20 ADD CALLDATALOAD PUSH2 0x1352 JUMP JUMPDEST PUSH2 0x3AD PUSH2 0x1546 JUMP JUMPDEST PUSH2 0x33C PUSH2 0x154C JUMP JUMPDEST PUSH2 0x346 PUSH1 0x4 DUP1 CALLDATASIZE SUB PUSH1 0x20 DUP2 LT ISZERO PUSH2 0x4F6 JUMPI PUSH1 0x0 DUP1 REVERT JUMPDEST POP CALLDATALOAD PUSH2 0x170F JUMP JUMPDEST PUSH2 0x33C PUSH1 0x4 DUP1 CALLDATASIZE SUB PUSH1 0x20 DUP2 LT ISZERO PUSH2 0x513 JUMPI PUSH1 0x0 DUP1 REVERT JUMPDEST POP CALLDATALOAD PUSH1 0x1 PUSH1 0x1 PUSH1 0xA0 SHL SUB AND PUSH2 0x171F JUMP JUMPDEST PUSH2 0x436 PUSH1 0x4 DUP1 CALLDATASIZE SUB PUSH1 0x20 DUP2 LT ISZERO PUSH2 0x539 JUMPI PUSH1 0x0 DUP1 REVERT JUMPDEST POP CALLDATALOAD PUSH1 0x1 PUSH1 0x1 PUSH1 0xA0 SHL SUB AND PUSH2 0x180C JUMP JUMPDEST PUSH2 0x33C PUSH2 0x1821 JUMP JUMPDEST PUSH2 0x436 PUSH1 0x4 DUP1 CALLDATASIZE SUB PUSH1 0x20 DUP2 LT ISZERO PUSH2 0x567 JUMPI PUSH1 0x0 DUP1 REVERT JUMPDEST POP CALLDATALOAD PUSH1 0x1 PUSH1 0x1 PUSH1 0xA0 SHL SUB AND PUSH2 0x18CB JUMP JUMPDEST PUSH2 0x33C PUSH1 0x4 DUP1 CALLDATASIZE SUB PUSH1 0x40 DUP2 LT ISZERO PUSH2 0x58D JUMPI PUSH1 0x0 DUP1 REVERT JUMPDEST POP PUSH1 0x1 PUSH1 0x1 PUSH1 0xA0 SHL SUB DUP2 CALLDATALOAD AND SWAP1 PUSH1 0x20 ADD CALLDATALOAD PUSH2 0x18E0 JUMP JUMPDEST PUSH2 0x346 PUSH1 0x4 DUP1 CALLDATASIZE SUB PUSH1 0x20 DUP2 LT ISZERO PUSH2 0x5B9 JUMPI PUSH1 0x0 DUP1 REVERT JUMPDEST POP CALLDATALOAD PUSH2 0x1A5A JUMP JUMPDEST PUSH2 0x346 PUSH1 0x4 DUP1 CALLDATASIZE SUB PUSH1 0x20 DUP2 LT ISZERO PUSH2 0x5D6 JUMPI PUSH1 0x0 DUP1 REVERT JUMPDEST POP CALLDATALOAD PUSH2 0x1A6A JUMP JUMPDEST PUSH2 0x3AD PUSH1 0x4 DUP1 CALLDATASIZE SUB PUSH1 0x20 DUP2 LT ISZERO PUSH2 0x5F3 JUMPI PUSH1 0x0 DUP1 REVERT JUMPDEST POP CALLDATALOAD PUSH1 0x1 PUSH1 0x1 PUSH1 0xA0 SHL SUB AND PUSH2 0x1A7A JUMP JUMPDEST PUSH2 0x346 PUSH1 0x4 DUP1 CALLDATASIZE SUB PUSH1 0x20 DUP2 LT ISZERO PUSH2 0x619 JUMPI PUSH1 0x0 DUP1 REVERT JUMPDEST POP CALLDATALOAD PUSH2 0x1A8C JUMP JUMPDEST PUSH2 0x436 PUSH1 0x4 DUP1 CALLDATASIZE SUB PUSH1 0x20 DUP2 LT ISZERO PUSH2 0x636 JUMPI PUSH1 0x0 DUP1 REVERT JUMPDEST POP CALLDATALOAD PUSH1 0x1 PUSH1 0x1 PUSH1 0xA0 SHL SUB AND PUSH2 0x1A9C JUMP JUMPDEST PUSH2 0x3AD PUSH1 0x4 DUP1 CALLDATASIZE SUB PUSH1 0x20 DUP2 LT ISZERO PUSH2 0x65C JUMPI PUSH1 0x0 DUP1 REVERT JUMPDEST POP CALLDATALOAD PUSH1 0x1 PUSH1 0x1 PUSH1 0xA0 SHL SUB AND PUSH2 0x1AB1 JUMP JUMPDEST PUSH2 0x346 PUSH1 0x4 DUP1 CALLDATASIZE SUB PUSH1 0x20 DUP2 LT ISZERO PUSH2 0x682 JUMPI PUSH1 0x0 DUP1 REVERT JUMPDEST POP CALLDATALOAD PUSH2 0x1AC3 JUMP JUMPDEST PUSH2 0x3AD PUSH2 0x1AD3 JUMP JUMPDEST PUSH2 0x3AD PUSH1 0x4 DUP1 CALLDATASIZE SUB PUSH1 0x20 DUP2 LT ISZERO PUSH2 0x6A7 JUMPI PUSH1 0x0 DUP1 REVERT JUMPDEST POP CALLDATALOAD PUSH1 0x1 PUSH1 0x1 PUSH1 0xA0 SHL SUB AND PUSH2 0x1AD9 JUMP JUMPDEST PUSH2 0x436 PUSH1 0x4 DUP1 CALLDATASIZE SUB PUSH1 0x20 DUP2 LT ISZERO PUSH2 0x6CD JUMPI PUSH1 0x0 DUP1 REVERT JUMPDEST POP CALLDATALOAD PUSH1 0x1 PUSH1 0x1 PUSH1 0xA0 SHL SUB AND PUSH2 0x1AEB JUMP JUMPDEST PUSH2 0x436 PUSH1 0x4 DUP1 CALLDATASIZE SUB PUSH1 0x20 DUP2 LT ISZERO PUSH2 0x6F3 JUMPI PUSH1 0x0 DUP1 REVERT JUMPDEST POP CALLDATALOAD PUSH1 0x1 PUSH1 0x1 PUSH1 0xA0 SHL SUB AND PUSH2 0x1B00 JUMP JUMPDEST PUSH2 0x346 PUSH2 0x1B15 JUMP JUMPDEST PUSH2 0x3AD PUSH1 0x4 DUP1 CALLDATASIZE SUB PUSH1 0x20 DUP2 LT ISZERO PUSH2 0x721 JUMPI PUSH1 0x0 DUP1 REVERT JUMPDEST POP CALLDATALOAD PUSH1 0x1 PUSH1 0x1 PUSH1 0xA0 SHL SUB AND PUSH2 0x1B39 JUMP JUMPDEST PUSH2 0x3AD PUSH1 0x4 DUP1 CALLDATASIZE SUB PUSH1 0x20 DUP2 LT ISZERO PUSH2 0x747 JUMPI PUSH1 0x0 DUP1 REVERT JUMPDEST POP CALLDATALOAD PUSH1 0x1 PUSH1 0x1 PUSH1 0xA0 SHL SUB AND PUSH2 0x1B4B JUMP JUMPDEST PUSH2 0x346 PUSH1 0x4 DUP1 CALLDATASIZE SUB PUSH1 0x20 DUP2 LT ISZERO PUSH2 0x76D JUMPI PUSH1 0x0 DUP1 REVERT JUMPDEST POP CALLDATALOAD PUSH2 0x1B5D JUMP JUMPDEST PUSH2 0x3AD PUSH1 0x4 DUP1 CALLDATASIZE SUB PUSH1 0x60 DUP2 LT ISZERO PUSH2 0x78A JUMPI PUSH1 0x0 DUP1 REVERT JUMPDEST POP DUP1 CALLDATALOAD SWAP1 PUSH1 0x1 PUSH1 0x1 PUSH1 0xA0 SHL SUB PUSH1 0x20 DUP3 ADD CALLDATALOAD AND SWAP1 PUSH1 0x40 ADD CALLDATALOAD PUSH2 0x1B6D JUMP JUMPDEST PUSH2 0x3AD PUSH1 0x4 DUP1 CALLDATASIZE SUB PUSH1 0x20 DUP2 LT ISZERO PUSH2 0x7BC JUMPI PUSH1 0x0 DUP1 REVERT JUMPDEST POP CALLDATALOAD PUSH1 0x1 PUSH1 0x1 PUSH1 0xA0 SHL SUB AND PUSH2 0x1DEB JUMP JUMPDEST PUSH2 0x3AD PUSH1 0x4 DUP1 CALLDATASIZE SUB PUSH1 0x20 DUP2 LT ISZERO PUSH2 0x7E2 JUMPI PUSH1 0x0 DUP1 REVERT JUMPDEST POP CALLDATALOAD PUSH1 0x1 PUSH1 0x1 PUSH1 0xA0 SHL SUB AND PUSH2 0x1DFD JUMP JUMPDEST PUSH2 0x346 PUSH1 0x4 DUP1 CALLDATASIZE SUB PUSH1 0x20 DUP2 LT ISZERO PUSH2 0x808 JUMPI PUSH1 0x0 DUP1 REVERT JUMPDEST POP CALLDATALOAD PUSH2 0x1E0F JUMP JUMPDEST PUSH2 0x3AD PUSH2 0x1E1F JUMP JUMPDEST PUSH2 0x3AD PUSH1 0x4 DUP1 CALLDATASIZE SUB PUSH1 0x40 DUP2 LT ISZERO PUSH2 0x82D JUMPI PUSH1 0x0 DUP1 REVERT JUMPDEST POP PUSH1 0x1 PUSH1 0x1 PUSH1 0xA0 SHL SUB DUP2 CALLDATALOAD AND SWAP1 PUSH1 0x20 ADD CALLDATALOAD PUSH2 0x1E43 JUMP JUMPDEST PUSH2 0x33C PUSH1 0x4 DUP1 CALLDATASIZE SUB PUSH1 0x40 DUP2 LT ISZERO PUSH2 0x859 JUMPI PUSH1 0x0 DUP1 REVERT JUMPDEST POP DUP1 CALLDATALOAD SWAP1 PUSH1 0x20 ADD CALLDATALOAD PUSH1 0x1 PUSH1 0x1 PUSH1 0xA0 SHL SUB AND PUSH2 0x1E56 JUMP JUMPDEST PUSH2 0x436 PUSH1 0x4 DUP1 CALLDATASIZE SUB PUSH1 0x20 DUP2 LT ISZERO PUSH2 0x885 JUMPI PUSH1 0x0 DUP1 REVERT JUMPDEST POP CALLDATALOAD PUSH1 0x1 PUSH1 0x1 PUSH1 0xA0 SHL SUB AND PUSH2 0x1FD9 JUMP JUMPDEST PUSH2 0x436 PUSH1 0x4 DUP1 CALLDATASIZE SUB PUSH1 0x40 DUP2 LT ISZERO PUSH2 0x8AB JUMPI PUSH1 0x0 DUP1 REVERT JUMPDEST POP DUP1 CALLDATALOAD PUSH1 0xFF AND SWAP1 PUSH1 0x20 ADD CALLDATALOAD PUSH1 0x1 PUSH1 0x1 PUSH1 0xA0 SHL SUB AND PUSH2 0x1FEE JUMP JUMPDEST PUSH2 0x436 PUSH1 0x4 DUP1 CALLDATASIZE SUB PUSH1 0x20 DUP2 LT ISZERO PUSH2 0x8DA JUMPI PUSH1 0x0 DUP1 REVERT JUMPDEST POP CALLDATALOAD PUSH1 0x1 PUSH1 0x1 PUSH1 0xA0 SHL SUB AND PUSH2 0x2439 JUMP JUMPDEST PUSH2 0x436 PUSH1 0x4 DUP1 CALLDATASIZE SUB PUSH1 0x20 DUP2 LT ISZERO PUSH2 0x900 JUMPI PUSH1 0x0 DUP1 REVERT JUMPDEST POP CALLDATALOAD PUSH1 0x1 PUSH1 0x1 PUSH1 0xA0 SHL SUB AND PUSH2 0x244E JUMP JUMPDEST PUSH2 0x3AD PUSH1 0x4 DUP1 CALLDATASIZE SUB PUSH1 0x20 DUP2 LT ISZERO PUSH2 0x926 JUMPI PUSH1 0x0 DUP1 REVERT JUMPDEST POP CALLDATALOAD PUSH1 0x1 PUSH1 0x1 PUSH1 0xA0 SHL SUB AND PUSH2 0x2463 JUMP JUMPDEST PUSH2 0x436 PUSH1 0x4 DUP1 CALLDATASIZE SUB PUSH1 0x60 DUP2 LT ISZERO PUSH2 0x94C JUMPI PUSH1 0x0 DUP1 REVERT JUMPDEST POP PUSH1 0xFF DUP2 CALLDATALOAD AND SWAP1 PUSH1 0x1 PUSH1 0x1 PUSH1 0xA0 SHL SUB PUSH1 0x20 DUP3 ADD CALLDATALOAD DUP2 AND SWAP2 PUSH1 0x40 ADD CALLDATALOAD AND PUSH2 0x2475 JUMP JUMPDEST PUSH2 0x3AD PUSH2 0x2D2F JUMP JUMPDEST PUSH2 0x346 PUSH1 0x4 DUP1 CALLDATASIZE SUB PUSH1 0x20 DUP2 LT ISZERO PUSH2 0x98B JUMPI PUSH1 0x0 DUP1 REVERT JUMPDEST POP CALLDATALOAD PUSH2 0x2D35 JUMP JUMPDEST PUSH2 0x3AD PUSH1 0x4 DUP1 CALLDATASIZE SUB PUSH1 0x20 DUP2 LT ISZERO PUSH2 0x9A8 JUMPI PUSH1 0x0 DUP1 REVERT JUMPDEST POP CALLDATALOAD PUSH1 0x1 PUSH1 0x1 PUSH1 0xA0 SHL SUB AND PUSH2 0x2D45 JUMP JUMPDEST PUSH1 0x1 PUSH1 0x1 PUSH1 0xA0 SHL SUB DUP2 AND PUSH1 0x0 SWAP1 DUP2 MSTORE PUSH1 0x3 PUSH1 0x20 MSTORE PUSH1 0x40 SWAP1 KECCAK256 SLOAD PUSH1 0xFF AND PUSH2 0xA14 JUMPI PUSH1 0x40 DUP1 MLOAD PUSH3 0x461BCD PUSH1 0xE5 SHL DUP2 MSTORE PUSH1 0x20 PUSH1 0x4 DUP3 ADD MSTORE PUSH1 0xC PUSH1 0x24 DUP3 ADD MSTORE PUSH12 0x139BDD081858D8D95C1D1959 PUSH1 0xA2 SHL PUSH1 0x44 DUP3 ADD MSTORE SWAP1 MLOAD SWAP1 DUP2 SWAP1 SUB PUSH1 0x64 ADD SWAP1 REVERT JUMPDEST CALLER PUSH1 0x0 SWAP1 DUP2 MSTORE PUSH1 0x9 PUSH1 0x20 MSTORE PUSH1 0x40 SWAP1 KECCAK256 SLOAD PUSH1 0xFF AND ISZERO ISZERO PUSH1 0x1 EQ PUSH2 0xA6C JUMPI PUSH1 0x40 DUP1 MLOAD PUSH3 0x461BCD PUSH1 0xE5 SHL DUP2 MSTORE PUSH1 0x20 PUSH1 0x4 DUP3 ADD MSTORE PUSH1 0xC PUSH1 0x24 DUP3 ADD MSTORE PUSH12 0x139BDD08185C1C1C9BDD9959 PUSH1 0xA2 SHL PUSH1 0x44 DUP3 ADD MSTORE SWAP1 MLOAD SWAP1 DUP2 SWAP1 SUB PUSH1 0x64 ADD SWAP1 REVERT JUMPDEST PUSH1 0x0 PUSH2 0xA78 DUP3 DUP5 PUSH2 0x1352 JUMP JUMPDEST SWAP1 POP PUSH32 0x0 PUSH1 0x1 PUSH1 0x1 PUSH1 0xA0 SHL SUB AND PUSH4 0x79CC6790 CALLER DUP4 PUSH1 0x40 MLOAD DUP4 PUSH4 0xFFFFFFFF AND PUSH1 0xE0 SHL DUP2 MSTORE PUSH1 0x4 ADD DUP1 DUP4 PUSH1 0x1 PUSH1 0x1 PUSH1 0xA0 SHL SUB AND DUP2 MSTORE PUSH1 0x20 ADD DUP3 DUP2 MSTORE PUSH1 0x20 ADD SWAP3 POP POP POP PUSH1 0x0 PUSH1 0x40 MLOAD DUP1 DUP4 SUB DUP2 PUSH1 0x0 DUP8 DUP1 EXTCODESIZE ISZERO DUP1 ISZERO PUSH2 0xAF1 JUMPI PUSH1 0x0 DUP1 REVERT JUMPDEST POP GAS CALL ISZERO DUP1 ISZERO PUSH2 0xB05 JUMPI RETURNDATASIZE PUSH1 0x0 DUP1 RETURNDATACOPY RETURNDATASIZE PUSH1 0x0 REVERT JUMPDEST POP POP PUSH1 0x21 SLOAD PUSH2 0xB17 SWAP3 POP SWAP1 POP DUP3 PUSH2 0x2D57 JUMP JUMPDEST PUSH1 0x21 DUP2 SWAP1 SSTORE PUSH1 0x40 MLOAD PUSH1 0x0 DUP1 MLOAD PUSH1 0x20 PUSH2 0x3440 DUP4 CODECOPY DUP2 MLOAD SWAP2 MSTORE SWAP1 PUSH1 0x0 SWAP1 LOG2 PUSH2 0xB47 PUSH1 0x1 PUSH1 0x1 PUSH1 0xA0 SHL SUB DUP4 AND CALLER DUP6 PUSH2 0x2D99 JUMP JUMPDEST PUSH1 0x40 DUP1 MLOAD DUP5 DUP2 MSTORE PUSH1 0x20 DUP2 ADD DUP4 SWAP1 MSTORE DUP2 MLOAD PUSH1 0x1 PUSH1 0x1 PUSH1 0xA0 SHL SUB DUP6 AND SWAP3 PUSH32 0xDF273CB619D95419A9CD0EC88123A0538C85064229BAA6363788F743FFF90DEB SWAP3 DUP3 SWAP1 SUB ADD SWAP1 LOG2 POP POP POP JUMP JUMPDEST PUSH1 0x0 SLOAD PUSH1 0x1 PUSH1 0x1 PUSH1 0xA0 SHL SUB AND SWAP1 JUMP JUMPDEST PUSH1 0x12 DUP2 DUP2 SLOAD DUP2 LT PUSH2 0xBAE JUMPI PUSH1 0x0 DUP1 REVERT JUMPDEST PUSH1 0x0 SWAP2 DUP3 MSTORE PUSH1 0x20 SWAP1 SWAP2 KECCAK256 ADD SLOAD PUSH1 0x1 PUSH1 0x1 PUSH1 0xA0 SHL SUB AND SWAP1 POP DUP2 JUMP JUMPDEST PUSH1 0x0 SLOAD PUSH1 0x1 PUSH1 0x1 PUSH1 0xA0 SHL SUB AND CALLER EQ PUSH2 0xC15 JUMPI PUSH1 0x40 DUP1 MLOAD PUSH3 0x461BCD PUSH1 0xE5 SHL DUP2 MSTORE PUSH1 0x20 PUSH1 0x4 DUP3 ADD DUP2 SWAP1 MSTORE PUSH1 0x24 DUP3 ADD MSTORE PUSH1 0x0 DUP1 MLOAD PUSH1 0x20 PUSH2 0x3420 DUP4 CODECOPY DUP2 MLOAD SWAP2 MSTORE PUSH1 0x44 DUP3 ADD MSTORE SWAP1 MLOAD SWAP1 DUP2 SWAP1 SUB PUSH1 0x64 ADD SWAP1 REVERT JUMPDEST PUSH1 0x0 DUP1 SLOAD PUSH1 0x40 MLOAD PUSH1 0x1 PUSH1 0x1 PUSH1 0xA0 SHL SUB SWAP1 SWAP2 AND SWAP1 PUSH32 0xEA8258F2D9DDB679928CF34B78CF645B7FEDA9ACC828E4DD82D014EAAE270EBA SWAP1 DUP4 SWAP1 LOG3 PUSH1 0x0 DUP1 SLOAD PUSH1 0x1 PUSH1 0x1 PUSH1 0xA0 SHL SUB NOT AND SWAP1 SSTORE JUMP JUMPDEST PUSH1 0x1B PUSH1 0x20 MSTORE PUSH1 0x0 SWAP1 DUP2 MSTORE PUSH1 0x40 SWAP1 KECCAK256 SLOAD DUP2 JUMP JUMPDEST PUSH1 0x1 PUSH1 0x1 PUSH1 0xA0 SHL SUB DUP3 AND PUSH1 0x0 SWAP1 DUP2 MSTORE PUSH1 0xC PUSH1 0x20 MSTORE PUSH1 0x40 SWAP1 KECCAK256 SLOAD PUSH1 0xFF AND ISZERO PUSH2 0xCEA JUMPI CALLER PUSH1 0x0 SWAP1 DUP2 MSTORE PUSH1 0x16 PUSH1 0x20 MSTORE PUSH1 0x40 SWAP1 KECCAK256 SLOAD PUSH1 0xFF AND PUSH2 0xCE5 JUMPI PUSH1 0x40 DUP1 MLOAD PUSH3 0x461BCD PUSH1 0xE5 SHL DUP2 MSTORE PUSH1 0x20 PUSH1 0x4 DUP3 ADD MSTORE PUSH1 0xC PUSH1 0x24 DUP3 ADD MSTORE PUSH12 0x139BDD08185C1C1C9BDD9959 PUSH1 0xA2 SHL PUSH1 0x44 DUP3 ADD MSTORE SWAP1 MLOAD SWAP1 DUP2 SWAP1 SUB PUSH1 0x64 ADD SWAP1 REVERT JUMPDEST PUSH2 0xD3D JUMP JUMPDEST CALLER PUSH1 0x0 SWAP1 DUP2 MSTORE PUSH1 0x13 PUSH1 0x20 MSTORE PUSH1 0x40 SWAP1 KECCAK256 SLOAD PUSH1 0xFF AND PUSH2 0xD3D JUMPI PUSH1 0x40 DUP1 MLOAD PUSH3 0x461BCD PUSH1 0xE5 SHL DUP2 MSTORE PUSH1 0x20 PUSH1 0x4 DUP3 ADD MSTORE PUSH1 0xC PUSH1 0x24 DUP3 ADD MSTORE PUSH12 0x139BDD08185C1C1C9BDD9959 PUSH1 0xA2 SHL PUSH1 0x44 DUP3 ADD MSTORE SWAP1 MLOAD SWAP1 DUP2 SWAP1 SUB PUSH1 0x64 ADD SWAP1 REVERT JUMPDEST PUSH1 0x0 PUSH2 0xD49 DUP4 DUP4 PUSH2 0x1352 JUMP JUMPDEST SWAP1 POP PUSH2 0xD53 PUSH2 0xE20 JUMP JUMPDEST DUP2 GT ISZERO PUSH2 0xD9F JUMPI PUSH1 0x40 DUP1 MLOAD PUSH3 0x461BCD PUSH1 0xE5 SHL DUP2 MSTORE PUSH1 0x20 PUSH1 0x4 DUP3 ADD MSTORE PUSH1 0x15 PUSH1 0x24 DUP3 ADD MSTORE PUSH21 0x496E73756666696369656E74207265736572766573 PUSH1 0x58 SHL PUSH1 0x44 DUP3 ADD MSTORE SWAP1 MLOAD SWAP1 DUP2 SWAP1 SUB PUSH1 0x64 ADD SWAP1 REVERT JUMPDEST PUSH1 0x21 SLOAD PUSH2 0xDAC SWAP1 DUP3 PUSH2 0x2D57 JUMP JUMPDEST PUSH1 0x21 DUP2 SWAP1 SSTORE PUSH1 0x40 MLOAD PUSH1 0x0 DUP1 MLOAD PUSH1 0x20 PUSH2 0x3440 DUP4 CODECOPY DUP2 MLOAD SWAP2 MSTORE SWAP1 PUSH1 0x0 SWAP1 LOG2 PUSH2 0xDDC PUSH1 0x1 PUSH1 0x1 PUSH1 0xA0 SHL SUB DUP5 AND CALLER DUP5 PUSH2 0x2D99 JUMP JUMPDEST PUSH1 0x40 DUP1 MLOAD DUP4 DUP2 MSTORE SWAP1 MLOAD PUSH1 0x1 PUSH1 0x1 PUSH1 0xA0 SHL SUB DUP6 AND SWAP2 PUSH32 0x2BB2640731848FE9820BA48DBC978C1FC9BBD5F11B948BFAB05B7DEE3378FD80 SWAP2 SWAP1 DUP2 SWAP1 SUB PUSH1 0x20 ADD SWAP1 LOG2 POP POP POP JUMP JUMPDEST PUSH1 0x0 PUSH2 0xEBF PUSH2 0xEB6 PUSH1 0x22 SLOAD PUSH32 0x0 PUSH1 0x1 PUSH1 0x1 PUSH1 0xA0 SHL SUB AND PUSH4 0x18160DDD PUSH1 0x40 MLOAD DUP2 PUSH4 0xFFFFFFFF AND PUSH1 0xE0 SHL DUP2 MSTORE PUSH1 0x4 ADD PUSH1 0x20 PUSH1 0x40 MLOAD DUP1 DUP4 SUB DUP2 DUP7 DUP1 EXTCODESIZE ISZERO DUP1 ISZERO PUSH2 0xE84 JUMPI PUSH1 0x0 DUP1 REVERT JUMPDEST POP GAS STATICCALL ISZERO DUP1 ISZERO PUSH2 0xE98 JUMPI RETURNDATASIZE PUSH1 0x0 DUP1 RETURNDATACOPY RETURNDATASIZE PUSH1 0x0 REVERT JUMPDEST POP POP POP POP PUSH1 0x40 MLOAD RETURNDATASIZE PUSH1 0x20 DUP2 LT ISZERO PUSH2 0xEAE JUMPI PUSH1 0x0 DUP1 REVERT JUMPDEST POP MLOAD SWAP1 PUSH2 0x2D57 JUMP JUMPDEST PUSH1 0x21 SLOAD SWAP1 PUSH2 0x2D57 JUMP JUMPDEST SWAP1 POP SWAP1 JUMP JUMPDEST CALLER PUSH1 0x0 SWAP1 DUP2 MSTORE PUSH1 0x19 PUSH1 0x20 MSTORE PUSH1 0x40 SWAP1 KECCAK256 SLOAD PUSH1 0xFF AND PUSH2 0xF17 JUMPI PUSH1 0x40 DUP1 MLOAD PUSH3 0x461BCD PUSH1 0xE5 SHL DUP2 MSTORE PUSH1 0x20 PUSH1 0x4 DUP3 ADD MSTORE PUSH1 0xC PUSH1 0x24 DUP3 ADD MSTORE PUSH12 0x139BDD08185C1C1C9BDD9959 PUSH1 0xA2 SHL PUSH1 0x44 DUP3 ADD MSTORE SWAP1 MLOAD SWAP1 DUP2 SWAP1 SUB PUSH1 0x64 ADD SWAP1 REVERT JUMPDEST PUSH1 0x40 DUP1 MLOAD PUSH4 0x79CC679 PUSH1 0xE4 SHL DUP2 MSTORE CALLER PUSH1 0x4 DUP3 ADD MSTORE PUSH1 0x24 DUP2 ADD DUP4 SWAP1 MSTORE SWAP1 MLOAD PUSH1 0x1 PUSH1 0x1 PUSH1 0xA0 SHL SUB PUSH32 0x0 AND SWAP2 PUSH4 0x79CC6790 SWAP2 PUSH1 0x44 DUP1 DUP4 ADD SWAP3 PUSH1 0x0 SWAP3 SWAP2 SWAP1 DUP3 SWAP1 SUB ADD DUP2 DUP4 DUP8 DUP1 EXTCODESIZE ISZERO DUP1 ISZERO PUSH2 0xF85 JUMPI PUSH1 0x0 DUP1 REVERT JUMPDEST POP GAS CALL ISZERO DUP1 ISZERO PUSH2 0xF99 JUMPI RETURNDATASIZE PUSH1 0x0 DUP1 RETURNDATACOPY RETURNDATASIZE PUSH1 0x0 REVERT JUMPDEST POP POP CALLER PUSH1 0x0 SWAP1 DUP2 MSTORE PUSH1 0x1B PUSH1 0x20 MSTORE PUSH1 0x40 SWAP1 KECCAK256 SLOAD PUSH2 0xFB8 SWAP3 POP SWAP1 POP DUP3 PUSH2 0x2D57 JUMP JUMPDEST CALLER PUSH1 0x0 SWAP1 DUP2 MSTORE PUSH1 0x1B PUSH1 0x20 MSTORE PUSH1 0x40 SWAP1 KECCAK256 SSTORE PUSH1 0x22 SLOAD PUSH2 0xFD5 SWAP1 DUP3 PUSH2 0x2D57 JUMP JUMPDEST PUSH1 0x22 SSTORE PUSH1 0x40 DUP1 MLOAD DUP3 DUP2 MSTORE PUSH1 0x20 DUP2 ADD DUP4 SWAP1 MSTORE DUP2 MLOAD PUSH1 0x1 PUSH1 0x1 PUSH1 0xA0 SHL SUB PUSH32 0x0 AND SWAP3 CALLER SWAP3 PUSH32 0xC6D98EECFC9C78AB62C89A82950079B54874749F1F6F24090F7ACC758BC2F309 SWAP3 SWAP1 DUP2 SWAP1 SUB SWAP1 SWAP2 ADD SWAP1 LOG3 POP JUMP JUMPDEST PUSH1 0x6 PUSH1 0x20 MSTORE PUSH1 0x0 SWAP1 DUP2 MSTORE PUSH1 0x40 SWAP1 KECCAK256 SLOAD PUSH1 0xFF AND DUP2 JUMP JUMPDEST CALLER PUSH1 0x0 SWAP1 DUP2 MSTORE PUSH1 0x19 PUSH1 0x20 MSTORE PUSH1 0x40 SWAP1 KECCAK256 SLOAD PUSH1 0xFF AND PUSH2 0x10AB JUMPI PUSH1 0x40 DUP1 MLOAD PUSH3 0x461BCD PUSH1 0xE5 SHL DUP2 MSTORE PUSH1 0x20 PUSH1 0x4 DUP3 ADD MSTORE PUSH1 0xC PUSH1 0x24 DUP3 ADD MSTORE PUSH12 0x139BDD08185C1C1C9BDD9959 PUSH1 0xA2 SHL PUSH1 0x44 DUP3 ADD MSTORE SWAP1 MLOAD SWAP1 DUP2 SWAP1 SUB PUSH1 0x64 ADD SWAP1 REVERT JUMPDEST PUSH1 0x1 PUSH1 0x1 PUSH1 0xA0 SHL SUB DUP2 AND PUSH1 0x0 SWAP1 DUP2 MSTORE PUSH1 0x3 PUSH1 0x20 MSTORE PUSH1 0x40 SWAP1 KECCAK256 SLOAD PUSH1 0xFF AND PUSH2 0x1107 JUMPI PUSH1 0x40 DUP1 MLOAD PUSH3 0x461BCD PUSH1 0xE5 SHL DUP2 MSTORE PUSH1 0x20 PUSH1 0x4 DUP3 ADD MSTORE PUSH1 0xC PUSH1 0x24 DUP3 ADD MSTORE PUSH12 0x139BDD081858D8D95C1D1959 PUSH1 0xA2 SHL PUSH1 0x44 DUP3 ADD MSTORE SWAP1 MLOAD SWAP1 DUP2 SWAP1 SUB PUSH1 0x64 ADD SWAP1 REVERT JUMPDEST PUSH1 0x0 PUSH2 0x1113 DUP3 DUP5 PUSH2 0x1352 JUMP JUMPDEST PUSH1 0x1F SLOAD PUSH1 0x40 DUP1 MLOAD PUSH4 0x70A08231 PUSH1 0xE0 SHL DUP2 MSTORE CALLER PUSH1 0x4 DUP3 ADD MSTORE SWAP1 MLOAD SWAP3 SWAP4 POP PUSH1 0x0 SWAP3 PUSH1 0x1 PUSH1 0x1 PUSH1 0xA0 SHL SUB SWAP1 SWAP3 AND SWAP2 PUSH4 0x70A08231 SWAP2 PUSH1 0x24 DUP1 DUP3 ADD SWAP3 PUSH1 0x20 SWAP3 SWAP1 SWAP2 SWAP1 DUP3 SWAP1 SUB ADD DUP2 DUP7 DUP1 EXTCODESIZE ISZERO DUP1 ISZERO PUSH2 0x1164 JUMPI PUSH1 0x0 DUP1 REVERT JUMPDEST POP GAS STATICCALL ISZERO DUP1 ISZERO PUSH2 0x1178 JUMPI RETURNDATASIZE PUSH1 0x0 DUP1 RETURNDATACOPY RETURNDATASIZE PUSH1 0x0 REVERT JUMPDEST POP POP POP POP PUSH1 0x40 MLOAD RETURNDATASIZE PUSH1 0x20 DUP2 LT ISZERO PUSH2 0x118E JUMPI PUSH1 0x0 DUP1 REVERT JUMPDEST POP MLOAD CALLER PUSH1 0x0 SWAP1 DUP2 MSTORE PUSH1 0x1B PUSH1 0x20 MSTORE PUSH1 0x40 DUP2 KECCAK256 SLOAD SWAP2 SWAP3 POP SWAP1 PUSH2 0x11AF SWAP1 DUP4 SWAP1 PUSH2 0x2D57 JUMP JUMPDEST SWAP1 POP DUP1 DUP4 GT ISZERO PUSH2 0x11FB JUMPI PUSH1 0x40 DUP1 MLOAD PUSH3 0x461BCD PUSH1 0xE5 SHL DUP2 MSTORE PUSH1 0x20 PUSH1 0x4 DUP3 ADD MSTORE PUSH1 0x12 PUSH1 0x24 DUP3 ADD MSTORE PUSH18 0x115E18D959591CC81919589D081B1A5B5A5D PUSH1 0x72 SHL PUSH1 0x44 DUP3 ADD MSTORE SWAP1 MLOAD SWAP1 DUP2 SWAP1 SUB PUSH1 0x64 ADD SWAP1 REVERT JUMPDEST CALLER PUSH1 0x0 SWAP1 DUP2 MSTORE PUSH1 0x1B PUSH1 0x20 MSTORE PUSH1 0x40 SWAP1 KECCAK256 SLOAD PUSH2 0x1215 SWAP1 DUP5 PUSH2 0x2DF0 JUMP JUMPDEST CALLER PUSH1 0x0 SWAP1 DUP2 MSTORE PUSH1 0x1B PUSH1 0x20 MSTORE PUSH1 0x40 SWAP1 KECCAK256 SSTORE PUSH1 0x22 SLOAD PUSH2 0x1232 SWAP1 DUP5 PUSH2 0x2DF0 JUMP JUMPDEST PUSH1 0x22 SSTORE PUSH1 0x21 SLOAD PUSH2 0x1242 SWAP1 DUP5 PUSH2 0x2D57 JUMP JUMPDEST PUSH1 0x21 DUP2 SWAP1 SSTORE PUSH1 0x40 MLOAD PUSH1 0x0 DUP1 MLOAD PUSH1 0x20 PUSH2 0x3440 DUP4 CODECOPY DUP2 MLOAD SWAP2 MSTORE SWAP1 PUSH1 0x0 SWAP1 LOG2 PUSH1 0x40 DUP1 MLOAD PUSH4 0xA9059CBB PUSH1 0xE0 SHL DUP2 MSTORE CALLER PUSH1 0x4 DUP3 ADD MSTORE PUSH1 0x24 DUP2 ADD DUP8 SWAP1 MSTORE SWAP1 MLOAD PUSH1 0x1 PUSH1 0x1 PUSH1 0xA0 SHL SUB DUP7 AND SWAP2 PUSH4 0xA9059CBB SWAP2 PUSH1 0x44 DUP1 DUP4 ADD SWAP3 PUSH1 0x20 SWAP3 SWAP2 SWAP1 DUP3 SWAP1 SUB ADD DUP2 PUSH1 0x0 DUP8 DUP1 EXTCODESIZE ISZERO DUP1 ISZERO PUSH2 0x12AD JUMPI PUSH1 0x0 DUP1 REVERT JUMPDEST POP GAS CALL ISZERO DUP1 ISZERO PUSH2 0x12C1 JUMPI RETURNDATASIZE PUSH1 0x0 DUP1 RETURNDATACOPY RETURNDATASIZE PUSH1 0x0 REVERT JUMPDEST POP POP POP POP PUSH1 0x40 MLOAD RETURNDATASIZE PUSH1 0x20 DUP2 LT ISZERO PUSH2 0x12D7 JUMPI PUSH1 0x0 DUP1 REVERT JUMPDEST POP POP PUSH1 0x40 DUP1 MLOAD DUP7 DUP2 MSTORE PUSH1 0x20 DUP2 ADD DUP6 SWAP1 MSTORE DUP2 MLOAD PUSH1 0x1 PUSH1 0x1 PUSH1 0xA0 SHL SUB DUP8 AND SWAP3 CALLER SWAP3 PUSH32 0x7E1A939BED137A819B5D2979822C67F877689F7A863D5E4CB57CDCA97B2977D6 SWAP3 SWAP1 DUP2 SWAP1 SUB SWAP1 SWAP2 ADD SWAP1 LOG3 POP POP POP POP POP JUMP JUMPDEST PUSH1 0x1F SLOAD PUSH1 0x1 PUSH1 0x1 PUSH1 0xA0 SHL SUB AND DUP2 JUMP JUMPDEST PUSH1 0x11 PUSH1 0x20 MSTORE PUSH1 0x0 SWAP1 DUP2 MSTORE PUSH1 0x40 SWAP1 KECCAK256 SLOAD PUSH1 0x1 PUSH1 0x1 PUSH1 0xA0 SHL SUB AND DUP2 JUMP JUMPDEST PUSH1 0x1 PUSH1 0x1 PUSH1 0xA0 SHL SUB DUP3 AND PUSH1 0x0 SWAP1 DUP2 MSTORE PUSH1 0x3 PUSH1 0x20 MSTORE PUSH1 0x40 DUP2 KECCAK256 SLOAD PUSH1 0xFF AND ISZERO PUSH2 0x148F JUMPI PUSH2 0x1488 DUP4 PUSH1 0x1 PUSH1 0x1 PUSH1 0xA0 SHL SUB AND PUSH4 0x313CE567 PUSH1 0x40 MLOAD DUP2 PUSH4 0xFFFFFFFF AND PUSH1 0xE0 SHL DUP2 MSTORE PUSH1 0x4 ADD PUSH1 0x20 PUSH1 0x40 MLOAD DUP1 DUP4 SUB DUP2 DUP7 DUP1 EXTCODESIZE ISZERO DUP1 ISZERO PUSH2 0x13AF JUMPI PUSH1 0x0 DUP1 REVERT JUMPDEST POP GAS STATICCALL ISZERO DUP1 ISZERO PUSH2 0x13C3 JUMPI RETURNDATASIZE PUSH1 0x0 DUP1 RETURNDATACOPY RETURNDATASIZE PUSH1 0x0 REVERT JUMPDEST POP POP POP POP PUSH1 0x40 MLOAD RETURNDATASIZE PUSH1 0x20 DUP2 LT ISZERO PUSH2 0x13D9 JUMPI PUSH1 0x0 DUP1 REVERT JUMPDEST POP MLOAD PUSH1 0x40 DUP1 MLOAD PUSH4 0x313CE567 PUSH1 0xE0 SHL DUP2 MSTORE SWAP1 MLOAD PUSH1 0xFF SWAP1 SWAP3 AND PUSH1 0xA EXP SWAP2 PUSH2 0x1482 SWAP2 PUSH1 0x1 PUSH1 0x1 PUSH1 0xA0 SHL SUB PUSH32 0x0 AND SWAP2 PUSH4 0x313CE567 SWAP2 PUSH1 0x4 DUP1 DUP3 ADD SWAP3 PUSH1 0x20 SWAP3 SWAP1 SWAP2 SWAP1 DUP3 SWAP1 SUB ADD DUP2 DUP7 DUP1 EXTCODESIZE ISZERO DUP1 ISZERO PUSH2 0x1449 JUMPI PUSH1 0x0 DUP1 REVERT JUMPDEST POP GAS STATICCALL ISZERO DUP1 ISZERO PUSH2 0x145D JUMPI RETURNDATASIZE PUSH1 0x0 DUP1 RETURNDATACOPY RETURNDATASIZE PUSH1 0x0 REVERT JUMPDEST POP POP POP POP PUSH1 0x40 MLOAD RETURNDATASIZE PUSH1 0x20 DUP2 LT ISZERO PUSH2 0x1473 JUMPI PUSH1 0x0 DUP1 REVERT JUMPDEST POP MLOAD DUP6 SWAP1 PUSH1 0xFF AND PUSH1 0xA EXP PUSH2 0x2E4A JUMP JUMPDEST SWAP1 PUSH2 0x2EA3 JUMP JUMPDEST SWAP1 POP PUSH2 0x1540 JUMP JUMPDEST PUSH1 0x1 PUSH1 0x1 PUSH1 0xA0 SHL SUB DUP4 AND PUSH1 0x0 SWAP1 DUP2 MSTORE PUSH1 0xC PUSH1 0x20 MSTORE PUSH1 0x40 SWAP1 KECCAK256 SLOAD PUSH1 0xFF AND ISZERO PUSH2 0x1540 JUMPI PUSH1 0x1 PUSH1 0x1 PUSH1 0xA0 SHL SUB DUP1 DUP5 AND PUSH1 0x0 DUP2 DUP2 MSTORE PUSH1 0x11 PUSH1 0x20 SWAP1 DUP2 MSTORE PUSH1 0x40 SWAP2 DUP3 SWAP1 KECCAK256 SLOAD DUP3 MLOAD PUSH4 0x4249719F PUSH1 0xE0 SHL DUP2 MSTORE PUSH1 0x4 DUP2 ADD SWAP5 SWAP1 SWAP5 MSTORE PUSH1 0x24 DUP5 ADD DUP8 SWAP1 MSTORE SWAP2 MLOAD SWAP2 SWAP1 SWAP4 AND SWAP3 PUSH4 0x4249719F SWAP3 PUSH1 0x44 DUP1 DUP3 ADD SWAP4 SWAP2 DUP3 SWAP1 SUB ADD DUP2 DUP7 DUP1 EXTCODESIZE ISZERO DUP1 ISZERO PUSH2 0x1511 JUMPI PUSH1 0x0 DUP1 REVERT JUMPDEST POP GAS STATICCALL ISZERO DUP1 ISZERO PUSH2 0x1525 JUMPI RETURNDATASIZE PUSH1 0x0 DUP1 RETURNDATACOPY RETURNDATASIZE PUSH1 0x0 REVERT JUMPDEST POP POP POP POP PUSH1 0x40 MLOAD RETURNDATASIZE PUSH1 0x20 DUP2 LT ISZERO PUSH2 0x153B JUMPI PUSH1 0x0 DUP1 REVERT JUMPDEST POP MLOAD SWAP1 POP JUMPDEST SWAP3 SWAP2 POP POP JUMP JUMPDEST PUSH1 0x20 SLOAD DUP2 JUMP JUMPDEST PUSH1 0x0 SLOAD PUSH1 0x1 PUSH1 0x1 PUSH1 0xA0 SHL SUB AND CALLER EQ PUSH2 0x1599 JUMPI PUSH1 0x40 DUP1 MLOAD PUSH3 0x461BCD PUSH1 0xE5 SHL DUP2 MSTORE PUSH1 0x20 PUSH1 0x4 DUP3 ADD DUP2 SWAP1 MSTORE PUSH1 0x24 DUP3 ADD MSTORE PUSH1 0x0 DUP1 MLOAD PUSH1 0x20 PUSH2 0x3420 DUP4 CODECOPY DUP2 MLOAD SWAP2 MSTORE PUSH1 0x44 DUP3 ADD MSTORE SWAP1 MLOAD SWAP1 DUP2 SWAP1 SUB PUSH1 0x64 ADD SWAP1 REVERT JUMPDEST PUSH1 0x0 DUP1 JUMPDEST PUSH1 0x2 SLOAD DUP2 LT ISZERO PUSH2 0x1671 JUMPI PUSH2 0x1667 PUSH2 0x1660 PUSH1 0x2 DUP4 DUP2 SLOAD DUP2 LT PUSH2 0x15BA JUMPI INVALID JUMPDEST PUSH1 0x0 SWAP2 DUP3 MSTORE PUSH1 0x20 SWAP1 SWAP2 KECCAK256 ADD SLOAD PUSH1 0x2 DUP1 SLOAD PUSH1 0x1 PUSH1 0x1 PUSH1 0xA0 SHL SUB SWAP1 SWAP3 AND SWAP2 DUP6 SWAP1 DUP2 LT PUSH2 0x15E0 JUMPI INVALID JUMPDEST PUSH1 0x0 SWAP2 DUP3 MSTORE PUSH1 0x20 SWAP2 DUP3 SWAP1 KECCAK256 ADD SLOAD PUSH1 0x40 DUP1 MLOAD PUSH4 0x70A08231 PUSH1 0xE0 SHL DUP2 MSTORE ADDRESS PUSH1 0x4 DUP3 ADD MSTORE SWAP1 MLOAD PUSH1 0x1 PUSH1 0x1 PUSH1 0xA0 SHL SUB SWAP1 SWAP3 AND SWAP3 PUSH4 0x70A08231 SWAP3 PUSH1 0x24 DUP1 DUP5 ADD SWAP4 DUP3 SWAP1 SUB ADD DUP2 DUP7 DUP1 EXTCODESIZE ISZERO DUP1 ISZERO PUSH2 0x162F JUMPI PUSH1 0x0 DUP1 REVERT JUMPDEST POP GAS STATICCALL ISZERO DUP1 ISZERO PUSH2 0x1643 JUMPI RETURNDATASIZE PUSH1 0x0 DUP1 RETURNDATACOPY RETURNDATASIZE PUSH1 0x0 REVERT JUMPDEST POP POP POP POP PUSH1 0x40 MLOAD RETURNDATASIZE PUSH1 0x20 DUP2 LT ISZERO PUSH2 0x1659 JUMPI PUSH1 0x0 DUP1 REVERT JUMPDEST POP MLOAD PUSH2 0x1352 JUMP JUMPDEST DUP4 SWAP1 PUSH2 0x2DF0 JUMP JUMPDEST SWAP2 POP PUSH1 0x1 ADD PUSH2 0x159D JUMP JUMPDEST POP PUSH1 0x0 JUMPDEST PUSH1 0xB SLOAD DUP2 LT ISZERO PUSH2 0x16C2 JUMPI PUSH2 0x16B8 PUSH2 0x1660 PUSH1 0xB DUP4 DUP2 SLOAD DUP2 LT PUSH2 0x1692 JUMPI INVALID JUMPDEST PUSH1 0x0 SWAP2 DUP3 MSTORE PUSH1 0x20 SWAP1 SWAP2 KECCAK256 ADD SLOAD PUSH1 0xB DUP1 SLOAD PUSH1 0x1 PUSH1 0x1 PUSH1 0xA0 SHL SUB SWAP1 SWAP3 AND SWAP2 DUP6 SWAP1 DUP2 LT PUSH2 0x15E0 JUMPI INVALID JUMPDEST SWAP2 POP PUSH1 0x1 ADD PUSH2 0x1675 JUMP JUMPDEST POP PUSH1 0x21 DUP2 SWAP1 SSTORE PUSH1 0x40 MLOAD DUP2 SWAP1 PUSH1 0x0 DUP1 MLOAD PUSH1 0x20 PUSH2 0x3440 DUP4 CODECOPY DUP2 MLOAD SWAP2 MSTORE SWAP1 PUSH1 0x0 SWAP1 LOG2 PUSH1 0x40 MLOAD DUP2 SWAP1 PUSH32 0xEC691F09F6924B27932253F85CAF99BACC30360CC0E50A1CC4D2ACC246014466 SWAP1 PUSH1 0x0 SWAP1 LOG2 POP JUMP JUMPDEST PUSH1 0x8 DUP2 DUP2 SLOAD DUP2 LT PUSH2 0xBAE JUMPI PUSH1 0x0 DUP1 REVERT JUMPDEST PUSH1 0x0 SLOAD PUSH1 0x1 PUSH1 0x1 PUSH1 0xA0 SHL SUB AND CALLER EQ PUSH2 0x176C JUMPI PUSH1 0x40 DUP1 MLOAD PUSH3 0x461BCD PUSH1 0xE5 SHL DUP2 MSTORE PUSH1 0x20 PUSH1 0x4 DUP3 ADD DUP2 SWAP1 MSTORE PUSH1 0x24 DUP3 ADD MSTORE PUSH1 0x0 DUP1 MLOAD PUSH1 0x20 PUSH2 0x3420 DUP4 CODECOPY DUP2 MLOAD SWAP2 MSTORE PUSH1 0x44 DUP3 ADD MSTORE SWAP1 MLOAD SWAP1 DUP2 SWAP1 SUB PUSH1 0x64 ADD SWAP1 REVERT JUMPDEST PUSH1 0x1 PUSH1 0x1 PUSH1 0xA0 SHL SUB DUP2 AND PUSH2 0x17B1 JUMPI PUSH1 0x40 MLOAD PUSH3 0x461BCD PUSH1 0xE5 SHL DUP2 MSTORE PUSH1 0x4 ADD DUP1 DUP1 PUSH1 0x20 ADD DUP3 DUP2 SUB DUP3 MSTORE PUSH1 0x26 DUP2 MSTORE PUSH1 0x20 ADD DUP1 PUSH2 0x33B7 PUSH1 0x26 SWAP2 CODECOPY PUSH1 0x40 ADD SWAP2 POP POP PUSH1 0x40 MLOAD DUP1 SWAP2 SUB SWAP1 REVERT JUMPDEST PUSH1 0x0 DUP1 SLOAD PUSH1 0x40 MLOAD PUSH1 0x1 PUSH1 0x1 PUSH1 0xA0 SHL SUB DUP1 DUP6 AND SWAP4 SWAP3 AND SWAP2 PUSH32 0xEA8258F2D9DDB679928CF34B78CF645B7FEDA9ACC828E4DD82D014EAAE270EBA SWAP2 LOG3 PUSH1 0x1 DUP1 SLOAD PUSH1 0x1 PUSH1 0x1 PUSH1 0xA0 SHL SUB NOT AND PUSH1 0x1 PUSH1 0x1 PUSH1 0xA0 SHL SUB SWAP3 SWAP1 SWAP3 AND SWAP2 SWAP1 SWAP2 OR SWAP1 SSTORE JUMP JUMPDEST PUSH1 0x1D PUSH1 0x20 MSTORE PUSH1 0x0 SWAP1 DUP2 MSTORE PUSH1 0x40 SWAP1 KECCAK256 SLOAD PUSH1 0xFF AND DUP2 JUMP JUMPDEST PUSH1 0x1 SLOAD PUSH1 0x1 PUSH1 0x1 PUSH1 0xA0 SHL SUB AND CALLER EQ PUSH2 0x186A JUMPI PUSH1 0x40 MLOAD PUSH3 0x461BCD PUSH1 0xE5 SHL DUP2 MSTORE PUSH1 0x4 ADD DUP1 DUP1 PUSH1 0x20 ADD DUP3 DUP2 SUB DUP3 MSTORE PUSH1 0x22 DUP2 MSTORE PUSH1 0x20 ADD DUP1 PUSH2 0x33DD PUSH1 0x22 SWAP2 CODECOPY PUSH1 0x40 ADD SWAP2 POP POP PUSH1 0x40 MLOAD DUP1 SWAP2 SUB SWAP1 REVERT JUMPDEST PUSH1 0x1 SLOAD PUSH1 0x0 DUP1 SLOAD PUSH1 0x40 MLOAD PUSH1 0x1 PUSH1 0x1 PUSH1 0xA0 SHL SUB SWAP4 DUP5 AND SWAP4 SWAP1 SWAP2 AND SWAP2 PUSH32 0xAA151555690C956FC3EA32F106BB9F119B5237A061EAA8557CFF3E51E3792C8D SWAP2 LOG3 PUSH1 0x1 SLOAD PUSH1 0x0 DUP1 SLOAD PUSH1 0x1 PUSH1 0x1 PUSH1 0xA0 SHL SUB NOT AND PUSH1 0x1 PUSH1 0x1 PUSH1 0xA0 SHL SUB SWAP1 SWAP3 AND SWAP2 SWAP1 SWAP2 OR SWAP1 SSTORE JUMP JUMPDEST PUSH1 0x3 PUSH1 0x20 MSTORE PUSH1 0x0 SWAP1 DUP2 MSTORE PUSH1 0x40 SWAP1 KECCAK256 SLOAD PUSH1 0xFF AND DUP2 JUMP JUMPDEST CALLER PUSH1 0x0 SWAP1 DUP2 MSTORE PUSH1 0x1D PUSH1 0x20 MSTORE PUSH1 0x40 SWAP1 KECCAK256 SLOAD PUSH1 0xFF AND PUSH2 0x1933 JUMPI PUSH1 0x40 DUP1 MLOAD PUSH3 0x461BCD PUSH1 0xE5 SHL DUP2 MSTORE PUSH1 0x20 PUSH1 0x4 DUP3 ADD MSTORE PUSH1 0xC PUSH1 0x24 DUP3 ADD MSTORE PUSH12 0x139BDD08185C1C1C9BDD9959 PUSH1 0xA2 SHL PUSH1 0x44 DUP3 ADD MSTORE SWAP1 MLOAD SWAP1 DUP2 SWAP1 SUB PUSH1 0x64 ADD SWAP1 REVERT JUMPDEST PUSH2 0x193B PUSH2 0xE20 JUMP JUMPDEST DUP2 GT ISZERO PUSH2 0x1987 JUMPI PUSH1 0x40 DUP1 MLOAD PUSH3 0x461BCD PUSH1 0xE5 SHL DUP2 MSTORE PUSH1 0x20 PUSH1 0x4 DUP3 ADD MSTORE PUSH1 0x15 PUSH1 0x24 DUP3 ADD MSTORE PUSH21 0x496E73756666696369656E74207265736572766573 PUSH1 0x58 SHL PUSH1 0x44 DUP3 ADD MSTORE SWAP1 MLOAD SWAP1 DUP2 SWAP1 SUB PUSH1 0x64 ADD SWAP1 REVERT JUMPDEST PUSH32 0x0 PUSH1 0x1 PUSH1 0x1 PUSH1 0xA0 SHL SUB AND PUSH4 0x40C10F19 DUP4 DUP4 PUSH1 0x40 MLOAD DUP4 PUSH4 0xFFFFFFFF AND PUSH1 0xE0 SHL DUP2 MSTORE PUSH1 0x4 ADD DUP1 DUP4 PUSH1 0x1 PUSH1 0x1 PUSH1 0xA0 SHL SUB AND DUP2 MSTORE PUSH1 0x20 ADD DUP3 DUP2 MSTORE PUSH1 0x20 ADD SWAP3 POP POP POP PUSH1 0x0 PUSH1 0x40 MLOAD DUP1 DUP4 SUB DUP2 PUSH1 0x0 DUP8 DUP1 EXTCODESIZE ISZERO DUP1 ISZERO PUSH2 0x19FE JUMPI PUSH1 0x0 DUP1 REVERT JUMPDEST POP GAS CALL ISZERO DUP1 ISZERO PUSH2 0x1A12 JUMPI RETURNDATASIZE PUSH1 0x0 DUP1 RETURNDATACOPY RETURNDATASIZE PUSH1 0x0 REVERT JUMPDEST POP POP PUSH1 0x40 DUP1 MLOAD DUP5 DUP2 MSTORE SWAP1 MLOAD PUSH1 0x1 PUSH1 0x1 PUSH1 0xA0 SHL SUB DUP7 AND SWAP4 POP CALLER SWAP3 POP PUSH32 0xFA8CCAB40E7DA8146C2304CD0950334FD30A6BA093ABE86261AA13911FED849C SWAP2 DUP2 SWAP1 SUB PUSH1 0x20 ADD SWAP1 LOG3 POP POP JUMP JUMPDEST PUSH1 0x5 DUP2 DUP2 SLOAD DUP2 LT PUSH2 0xBAE JUMPI PUSH1 0x0 DUP1 REVERT JUMPDEST PUSH1 0x15 DUP2 DUP2 SLOAD DUP2 LT PUSH2 0xBAE JUMPI PUSH1 0x0 DUP1 REVERT JUMPDEST PUSH1 0x4 PUSH1 0x20 MSTORE PUSH1 0x0 SWAP1 DUP2 MSTORE PUSH1 0x40 SWAP1 KECCAK256 SLOAD DUP2 JUMP JUMPDEST PUSH1 0x18 DUP2 DUP2 SLOAD DUP2 LT PUSH2 0xBAE JUMPI PUSH1 0x0 DUP1 REVERT JUMPDEST PUSH1 0x9 PUSH1 0x20 MSTORE PUSH1 0x0 SWAP1 DUP2 MSTORE PUSH1 0x40 SWAP1 KECCAK256 SLOAD PUSH1 0xFF AND DUP2 JUMP JUMPDEST PUSH1 0xD PUSH1 0x20 MSTORE PUSH1 0x0 SWAP1 DUP2 MSTORE PUSH1 0x40 SWAP1 KECCAK256 SLOAD DUP2 JUMP JUMPDEST PUSH1 0xE DUP2 DUP2 SLOAD DUP2 LT PUSH2 0xBAE JUMPI PUSH1 0x0 DUP1 REVERT JUMPDEST PUSH1 0x21 SLOAD DUP2 JUMP JUMPDEST PUSH1 0x7 PUSH1 0x20 MSTORE PUSH1 0x0 SWAP1 DUP2 MSTORE PUSH1 0x40 SWAP1 KECCAK256 SLOAD DUP2 JUMP JUMPDEST PUSH1 0xF PUSH1 0x20 MSTORE PUSH1 0x0 SWAP1 DUP2 MSTORE PUSH1 0x40 SWAP1 KECCAK256 SLOAD PUSH1 0xFF AND DUP2 JUMP JUMPDEST PUSH1 0xC PUSH1 0x20 MSTORE PUSH1 0x0 SWAP1 DUP2 MSTORE PUSH1 0x40 SWAP1 KECCAK256 SLOAD PUSH1 0xFF AND DUP2 JUMP JUMPDEST PUSH32 0x0 DUP2 JUMP JUMPDEST PUSH1 0x17 PUSH1 0x20 MSTORE PUSH1 0x0 SWAP1 DUP2 MSTORE PUSH1 0x40 SWAP1 KECCAK256 SLOAD DUP2 JUMP JUMPDEST PUSH1 0x14 PUSH1 0x20 MSTORE PUSH1 0x0 SWAP1 DUP2 MSTORE PUSH1 0x40 SWAP1 KECCAK256 SLOAD DUP2 JUMP JUMPDEST PUSH1 0x1C DUP2 DUP2 SLOAD DUP2 LT PUSH2 0xBAE JUMPI PUSH1 0x0 DUP1 REVERT JUMPDEST PUSH1 0x1 PUSH1 0x1 PUSH1 0xA0 SHL SUB DUP3 AND PUSH1 0x0 SWAP1 DUP2 MSTORE PUSH1 0x3 PUSH1 0x20 MSTORE PUSH1 0x40 DUP2 KECCAK256 SLOAD PUSH1 0xFF AND DUP1 PUSH2 0x1BAC JUMPI POP PUSH1 0x1 PUSH1 0x1 PUSH1 0xA0 SHL SUB DUP4 AND PUSH1 0x0 SWAP1 DUP2 MSTORE PUSH1 0xC PUSH1 0x20 MSTORE PUSH1 0x40 SWAP1 KECCAK256 SLOAD PUSH1 0xFF AND JUMPDEST PUSH2 0x1BEC JUMPI PUSH1 0x40 DUP1 MLOAD PUSH3 0x461BCD PUSH1 0xE5 SHL DUP2 MSTORE PUSH1 0x20 PUSH1 0x4 DUP3 ADD MSTORE PUSH1 0xC PUSH1 0x24 DUP3 ADD MSTORE PUSH12 0x139BDD081858D8D95C1D1959 PUSH1 0xA2 SHL PUSH1 0x44 DUP3 ADD MSTORE SWAP1 MLOAD SWAP1 DUP2 SWAP1 SUB PUSH1 0x64 ADD SWAP1 REVERT JUMPDEST PUSH2 0x1C01 PUSH1 0x1 PUSH1 0x1 PUSH1 0xA0 SHL SUB DUP5 AND CALLER ADDRESS DUP8 PUSH2 0x2EE5 JUMP JUMPDEST PUSH1 0x1 PUSH1 0x1 PUSH1 0xA0 SHL SUB DUP4 AND PUSH1 0x0 SWAP1 DUP2 MSTORE PUSH1 0x3 PUSH1 0x20 MSTORE PUSH1 0x40 SWAP1 KECCAK256 SLOAD PUSH1 0xFF AND ISZERO PUSH2 0x1C7A JUMPI CALLER PUSH1 0x0 SWAP1 DUP2 MSTORE PUSH1 0x6 PUSH1 0x20 MSTORE PUSH1 0x40 SWAP1 KECCAK256 SLOAD PUSH1 0xFF AND PUSH2 0x1C75 JUMPI PUSH1 0x40 DUP1 MLOAD PUSH3 0x461BCD PUSH1 0xE5 SHL DUP2 MSTORE PUSH1 0x20 PUSH1 0x4 DUP3 ADD MSTORE PUSH1 0xC PUSH1 0x24 DUP3 ADD MSTORE PUSH12 0x139BDD08185C1C1C9BDD9959 PUSH1 0xA2 SHL PUSH1 0x44 DUP3 ADD MSTORE SWAP1 MLOAD SWAP1 DUP2 SWAP1 SUB PUSH1 0x64 ADD SWAP1 REVERT JUMPDEST PUSH2 0x1CCD JUMP JUMPDEST CALLER PUSH1 0x0 SWAP1 DUP2 MSTORE PUSH1 0xF PUSH1 0x20 MSTORE PUSH1 0x40 SWAP1 KECCAK256 SLOAD PUSH1 0xFF AND PUSH2 0x1CCD JUMPI PUSH1 0x40 DUP1 MLOAD PUSH3 0x461BCD PUSH1 0xE5 SHL DUP2 MSTORE PUSH1 0x20 PUSH1 0x4 DUP3 ADD MSTORE PUSH1 0xC PUSH1 0x24 DUP3 ADD MSTORE PUSH12 0x139BDD08185C1C1C9BDD9959 PUSH1 0xA2 SHL PUSH1 0x44 DUP3 ADD MSTORE SWAP1 MLOAD SWAP1 DUP2 SWAP1 SUB PUSH1 0x64 ADD SWAP1 REVERT JUMPDEST PUSH1 0x0 PUSH2 0x1CD9 DUP5 DUP7 PUSH2 0x1352 JUMP JUMPDEST SWAP1 POP PUSH2 0x1CE5 DUP2 DUP5 PUSH2 0x2D57 JUMP JUMPDEST SWAP2 POP PUSH32 0x0 PUSH1 0x1 PUSH1 0x1 PUSH1 0xA0 SHL SUB AND PUSH4 0x40C10F19 CALLER DUP5 PUSH1 0x40 MLOAD DUP4 PUSH4 0xFFFFFFFF AND PUSH1 0xE0 SHL DUP2 MSTORE PUSH1 0x4 ADD DUP1 DUP4 PUSH1 0x1 PUSH1 0x1 PUSH1 0xA0 SHL SUB AND DUP2 MSTORE PUSH1 0x20 ADD DUP3 DUP2 MSTORE PUSH1 0x20 ADD SWAP3 POP POP POP PUSH1 0x0 PUSH1 0x40 MLOAD DUP1 DUP4 SUB DUP2 PUSH1 0x0 DUP8 DUP1 EXTCODESIZE ISZERO DUP1 ISZERO PUSH2 0x1D5E JUMPI PUSH1 0x0 DUP1 REVERT JUMPDEST POP GAS CALL ISZERO DUP1 ISZERO PUSH2 0x1D72 JUMPI RETURNDATASIZE PUSH1 0x0 DUP1 RETURNDATACOPY RETURNDATASIZE PUSH1 0x0 REVERT JUMPDEST POP POP PUSH1 0x21 SLOAD PUSH2 0x1D84 SWAP3 POP SWAP1 POP DUP3 PUSH2 0x2DF0 JUMP JUMPDEST PUSH1 0x21 DUP2 SWAP1 SSTORE PUSH1 0x40 MLOAD PUSH1 0x0 DUP1 MLOAD PUSH1 0x20 PUSH2 0x3440 DUP4 CODECOPY DUP2 MLOAD SWAP2 MSTORE SWAP1 PUSH1 0x0 SWAP1 LOG2 PUSH1 0x40 DUP1 MLOAD DUP7 DUP2 MSTORE PUSH1 0x20 DUP2 ADD DUP4 SWAP1 MSTORE DUP2 MLOAD PUSH1 0x1 PUSH1 0x1 PUSH1 0xA0 SHL SUB DUP8 AND SWAP3 PUSH32 0x90890809C654F11D6E72A28FA60149770A0D11EC6C92319D6CEB2BB0A4EA1A15 SWAP3 DUP3 SWAP1 SUB ADD SWAP1 LOG2 POP SWAP4 SWAP3 POP POP POP JUMP JUMPDEST PUSH1 0xA PUSH1 0x20 MSTORE PUSH1 0x0 SWAP1 DUP2 MSTORE PUSH1 0x40 SWAP1 KECCAK256 SLOAD DUP2 JUMP JUMPDEST PUSH1 0x1A PUSH1 0x20 MSTORE PUSH1 0x0 SWAP1 DUP2 MSTORE PUSH1 0x40 SWAP1 KECCAK256 SLOAD DUP2 JUMP JUMPDEST PUSH1 0x2 DUP2 DUP2 SLOAD DUP2 LT PUSH2 0xBAE JUMPI PUSH1 0x0 DUP1 REVERT JUMPDEST PUSH32 0x0 DUP2 JUMP JUMPDEST PUSH1 0x0 PUSH2 0x1E4F DUP4 DUP4 PUSH2 0x1352 JUMP JUMPDEST SWAP4 SWAP3 POP POP POP JUMP JUMPDEST CALLER PUSH1 0x0 SWAP1 DUP2 MSTORE PUSH1 0x19 PUSH1 0x20 MSTORE PUSH1 0x40 SWAP1 KECCAK256 SLOAD PUSH1 0xFF AND PUSH2 0x1EA9 JUMPI PUSH1 0x40 DUP1 MLOAD PUSH3 0x461BCD PUSH1 0xE5 SHL DUP2 MSTORE PUSH1 0x20 PUSH1 0x4 DUP3 ADD MSTORE PUSH1 0xC PUSH1 0x24 DUP3 ADD MSTORE PUSH12 0x139BDD08185C1C1C9BDD9959 PUSH1 0xA2 SHL PUSH1 0x44 DUP3 ADD MSTORE SWAP1 MLOAD SWAP1 DUP2 SWAP1 SUB PUSH1 0x64 ADD SWAP1 REVERT JUMPDEST PUSH1 0x1 PUSH1 0x1 PUSH1 0xA0 SHL SUB DUP2 AND PUSH1 0x0 SWAP1 DUP2 MSTORE PUSH1 0x3 PUSH1 0x20 MSTORE PUSH1 0x40 SWAP1 KECCAK256 SLOAD PUSH1 0xFF AND PUSH2 0x1F05 JUMPI PUSH1 0x40 DUP1 MLOAD PUSH3 0x461BCD PUSH1 0xE5 SHL DUP2 MSTORE PUSH1 0x20 PUSH1 0x4 DUP3 ADD MSTORE PUSH1 0xC PUSH1 0x24 DUP3 ADD MSTORE PUSH12 0x139BDD081858D8D95C1D1959 PUSH1 0xA2 SHL PUSH1 0x44 DUP3 ADD MSTORE SWAP1 MLOAD SWAP1 DUP2 SWAP1 SUB PUSH1 0x64 ADD SWAP1 REVERT JUMPDEST PUSH2 0x1F1A PUSH1 0x1 PUSH1 0x1 PUSH1 0xA0 SHL SUB DUP3 AND CALLER ADDRESS DUP6 PUSH2 0x2EE5 JUMP JUMPDEST PUSH1 0x0 PUSH2 0x1F26 DUP3 DUP5 PUSH2 0x1352 JUMP JUMPDEST CALLER PUSH1 0x0 SWAP1 DUP2 MSTORE PUSH1 0x1B PUSH1 0x20 MSTORE PUSH1 0x40 SWAP1 KECCAK256 SLOAD SWAP1 SWAP2 POP PUSH2 0x1F43 SWAP1 DUP3 PUSH2 0x2D57 JUMP JUMPDEST CALLER PUSH1 0x0 SWAP1 DUP2 MSTORE PUSH1 0x1B PUSH1 0x20 MSTORE PUSH1 0x40 SWAP1 KECCAK256 SSTORE PUSH1 0x22 SLOAD PUSH2 0x1F60 SWAP1 DUP3 PUSH2 0x2D57 JUMP JUMPDEST PUSH1 0x22 SSTORE PUSH1 0x21 SLOAD PUSH2 0x1F70 SWAP1 DUP3 PUSH2 0x2DF0 JUMP JUMPDEST PUSH1 0x21 DUP2 SWAP1 SSTORE PUSH1 0x40 MLOAD PUSH1 0x0 DUP1 MLOAD PUSH1 0x20 PUSH2 0x3440 DUP4 CODECOPY DUP2 MLOAD SWAP2 MSTORE SWAP1 PUSH1 0x0 SWAP1 LOG2 PUSH1 0x40 DUP1 MLOAD DUP5 DUP2 MSTORE PUSH1 0x20 DUP2 ADD DUP4 SWAP1 MSTORE DUP2 MLOAD PUSH1 0x1 PUSH1 0x1 PUSH1 0xA0 SHL SUB DUP6 AND SWAP3 CALLER SWAP3 PUSH32 0xC6D98EECFC9C78AB62C89A82950079B54874749F1F6F24090F7ACC758BC2F309 SWAP3 SWAP1 DUP2 SWAP1 SUB SWAP1 SWAP2 ADD SWAP1 LOG3 POP POP POP JUMP JUMPDEST PUSH1 0x16 PUSH1 0x20 MSTORE PUSH1 0x0 SWAP1 DUP2 MSTORE PUSH1 0x40 SWAP1 KECCAK256 SLOAD PUSH1 0xFF AND DUP2 JUMP JUMPDEST PUSH1 0x0 DUP1 SLOAD PUSH1 0x1 PUSH1 0x1 PUSH1 0xA0 SHL SUB AND CALLER EQ PUSH2 0x203C JUMPI PUSH1 0x40 DUP1 MLOAD PUSH3 0x461BCD PUSH1 0xE5 SHL DUP2 MSTORE PUSH1 0x20 PUSH1 0x4 DUP3 ADD DUP2 SWAP1 MSTORE PUSH1 0x24 DUP3 ADD MSTORE PUSH1 0x0 DUP1 MLOAD PUSH1 0x20 PUSH2 0x3420 DUP4 CODECOPY DUP2 MLOAD SWAP2 MSTORE PUSH1 0x44 DUP3 ADD MSTORE SWAP1 MLOAD SWAP1 DUP2 SWAP1 SUB PUSH1 0x64 ADD SWAP1 REVERT JUMPDEST PUSH1 0x1 PUSH1 0x1 PUSH1 0xA0 SHL SUB DUP3 AND PUSH2 0x204F JUMPI PUSH1 0x0 DUP1 REVERT JUMPDEST PUSH1 0x0 DUP4 PUSH1 0x9 DUP2 GT ISZERO PUSH2 0x205D JUMPI INVALID JUMPDEST EQ ISZERO PUSH2 0x20AB JUMPI PUSH2 0x208D NUMBER PUSH32 0x0 PUSH2 0x2DF0 JUMP JUMPDEST PUSH1 0x1 PUSH1 0x1 PUSH1 0xA0 SHL SUB DUP4 AND PUSH1 0x0 SWAP1 DUP2 MSTORE PUSH1 0x7 PUSH1 0x20 MSTORE PUSH1 0x40 SWAP1 KECCAK256 SSTORE PUSH2 0x23E8 JUMP JUMPDEST PUSH1 0x1 DUP4 PUSH1 0x9 DUP2 GT ISZERO PUSH2 0x20B9 JUMPI INVALID JUMPDEST EQ ISZERO PUSH2 0x2107 JUMPI PUSH2 0x20E9 NUMBER PUSH32 0x0 PUSH2 0x2DF0 JUMP JUMPDEST PUSH1 0x1 PUSH1 0x1 PUSH1 0xA0 SHL SUB DUP4 AND PUSH1 0x0 SWAP1 DUP2 MSTORE PUSH1 0xA PUSH1 0x20 MSTORE PUSH1 0x40 SWAP1 KECCAK256 SSTORE PUSH2 0x23E8 JUMP JUMPDEST PUSH1 0x2 DUP4 PUSH1 0x9 DUP2 GT ISZERO PUSH2 0x2115 JUMPI INVALID JUMPDEST EQ ISZERO PUSH2 0x2163 JUMPI PUSH2 0x2145 NUMBER PUSH32 0x0 PUSH2 0x2DF0 JUMP JUMPDEST PUSH1 0x1 PUSH1 0x1 PUSH1 0xA0 SHL SUB DUP4 AND PUSH1 0x0 SWAP1 DUP2 MSTORE PUSH1 0x4 PUSH1 0x20 MSTORE PUSH1 0x40 SWAP1 KECCAK256 SSTORE PUSH2 0x23E8 JUMP JUMPDEST PUSH1 0x3 DUP4 PUSH1 0x9 DUP2 GT ISZERO PUSH2 0x2171 JUMPI INVALID JUMPDEST EQ ISZERO PUSH2 0x21CA JUMPI PUSH2 0x21AC PUSH2 0x21A5 PUSH32 0x0 PUSH1 0x2 PUSH2 0x2E4A JUMP JUMPDEST NUMBER SWAP1 PUSH2 0x2DF0 JUMP JUMPDEST PUSH1 0x1 PUSH1 0x1 PUSH1 0xA0 SHL SUB DUP4 AND PUSH1 0x0 SWAP1 DUP2 MSTORE PUSH1 0x14 PUSH1 0x20 MSTORE PUSH1 0x40 SWAP1 KECCAK256 SSTORE PUSH2 0x23E8 JUMP JUMPDEST PUSH1 0x4 DUP4 PUSH1 0x9 DUP2 GT ISZERO PUSH2 0x21D8 JUMPI INVALID JUMPDEST EQ ISZERO PUSH2 0x2226 JUMPI PUSH2 0x2208 NUMBER PUSH32 0x0 PUSH2 0x2DF0 JUMP JUMPDEST PUSH1 0x1 PUSH1 0x1 PUSH1 0xA0 SHL SUB DUP4 AND PUSH1 0x0 SWAP1 DUP2 MSTORE PUSH1 0x10 PUSH1 0x20 MSTORE PUSH1 0x40 SWAP1 KECCAK256 SSTORE PUSH2 0x23E8 JUMP JUMPDEST PUSH1 0x5 DUP4 PUSH1 0x9 DUP2 GT ISZERO PUSH2 0x2234 JUMPI INVALID JUMPDEST EQ ISZERO PUSH2 0x2282 JUMPI PUSH2 0x2264 NUMBER PUSH32 0x0 PUSH2 0x2DF0 JUMP JUMPDEST PUSH1 0x1 PUSH1 0x1 PUSH1 0xA0 SHL SUB DUP4 AND PUSH1 0x0 SWAP1 DUP2 MSTORE PUSH1 0xD PUSH1 0x20 MSTORE PUSH1 0x40 SWAP1 KECCAK256 SSTORE PUSH2 0x23E8 JUMP JUMPDEST PUSH1 0x6 DUP4 PUSH1 0x9 DUP2 GT ISZERO PUSH2 0x2290 JUMPI INVALID JUMPDEST EQ ISZERO PUSH2 0x22E2 JUMPI PUSH2 0x22C4 PUSH2 0x21A5 PUSH32 0x0 PUSH1 0x2 PUSH2 0x2E4A JUMP JUMPDEST PUSH1 0x1 PUSH1 0x1 PUSH1 0xA0 SHL SUB DUP4 AND PUSH1 0x0 SWAP1 DUP2 MSTORE PUSH1 0x17 PUSH1 0x20 MSTORE PUSH1 0x40 SWAP1 KECCAK256 SSTORE PUSH2 0x23E8 JUMP JUMPDEST PUSH1 0x7 DUP4 PUSH1 0x9 DUP2 GT ISZERO PUSH2 0x22F0 JUMPI INVALID JUMPDEST EQ ISZERO PUSH2 0x233E JUMPI PUSH2 0x2320 NUMBER PUSH32 0x0 PUSH2 0x2DF0 JUMP JUMPDEST PUSH1 0x1 PUSH1 0x1 PUSH1 0xA0 SHL SUB DUP4 AND PUSH1 0x0 SWAP1 DUP2 MSTORE PUSH1 0x1A PUSH1 0x20 MSTORE PUSH1 0x40 SWAP1 KECCAK256 SSTORE PUSH2 0x23E8 JUMP JUMPDEST PUSH1 0x8 DUP4 PUSH1 0x9 DUP2 GT ISZERO PUSH2 0x234C JUMPI INVALID JUMPDEST EQ ISZERO PUSH2 0x239A JUMPI PUSH2 0x237C NUMBER PUSH32 0x0 PUSH2 0x2DF0 JUMP JUMPDEST PUSH1 0x1 PUSH1 0x1 PUSH1 0xA0 SHL SUB DUP4 AND PUSH1 0x0 SWAP1 DUP2 MSTORE PUSH1 0x1E PUSH1 0x20 MSTORE PUSH1 0x40 SWAP1 KECCAK256 SSTORE PUSH2 0x23E8 JUMP JUMPDEST PUSH1 0x9 DUP4 PUSH1 0x9 DUP2 GT ISZERO PUSH2 0x23A8 JUMPI INVALID JUMPDEST EQ ISZERO PUSH2 0x23E0 JUMPI PUSH2 0x23D8 NUMBER PUSH32 0x0 PUSH2 0x2DF0 JUMP JUMPDEST PUSH1 0x20 SSTORE PUSH2 0x23E8 JUMP JUMPDEST POP PUSH1 0x0 PUSH2 0x1540 JUMP JUMPDEST DUP3 PUSH1 0x9 DUP2 GT ISZERO PUSH2 0x23F4 JUMPI INVALID JUMPDEST PUSH1 0x40 DUP1 MLOAD PUSH1 0x1 PUSH1 0x1 PUSH1 0xA0 SHL SUB DUP6 AND DUP2 MSTORE SWAP1 MLOAD PUSH32 0xE4F2C4B5BC209D509BC3D49348C787FEFADC66A79351B470599AC0F5BE52EAF SWAP2 DUP2 SWAP1 SUB PUSH1 0x20 ADD SWAP1 LOG2 POP PUSH1 0x1 SWAP3 SWAP2 POP POP JUMP JUMPDEST PUSH1 0x13 PUSH1 0x20 MSTORE PUSH1 0x0 SWAP1 DUP2 MSTORE PUSH1 0x40 SWAP1 KECCAK256 SLOAD PUSH1 0xFF AND DUP2 JUMP JUMPDEST PUSH1 0x19 PUSH1 0x20 MSTORE PUSH1 0x0 SWAP1 DUP2 MSTORE PUSH1 0x40 SWAP1 KECCAK256 SLOAD PUSH1 0xFF AND DUP2 JUMP JUMPDEST PUSH1 0x1E PUSH1 0x20 MSTORE PUSH1 0x0 SWAP1 DUP2 MSTORE PUSH1 0x40 SWAP1 KECCAK256 SLOAD DUP2 JUMP JUMPDEST PUSH1 0x0 DUP1 SLOAD PUSH1 0x1 PUSH1 0x1 PUSH1 0xA0 SHL SUB AND CALLER EQ PUSH2 0x24C3 JUMPI PUSH1 0x40 DUP1 MLOAD PUSH3 0x461BCD PUSH1 0xE5 SHL DUP2 MSTORE PUSH1 0x20 PUSH1 0x4 DUP3 ADD DUP2 SWAP1 MSTORE PUSH1 0x24 DUP3 ADD MSTORE PUSH1 0x0 DUP1 MLOAD PUSH1 0x20 PUSH2 0x3420 DUP4 CODECOPY DUP2 MLOAD SWAP2 MSTORE PUSH1 0x44 DUP3 ADD MSTORE SWAP1 MLOAD SWAP1 DUP2 SWAP1 SUB PUSH1 0x64 ADD SWAP1 REVERT JUMPDEST PUSH1 0x1 PUSH1 0x1 PUSH1 0xA0 SHL SUB DUP4 AND PUSH2 0x24D6 JUMPI PUSH1 0x0 DUP1 REVERT JUMPDEST PUSH1 0x0 DUP1 DUP6 PUSH1 0x9 DUP2 GT ISZERO PUSH2 0x24E5 JUMPI INVALID JUMPDEST EQ ISZERO PUSH2 0x25A1 JUMPI PUSH2 0x24F8 PUSH1 0x7 PUSH1 0x6 DUP7 PUSH2 0x2F45 JUMP JUMPDEST ISZERO PUSH2 0x2571 JUMPI PUSH1 0x1 PUSH1 0x1 PUSH1 0xA0 SHL SUB DUP5 AND PUSH1 0x0 SWAP1 DUP2 MSTORE PUSH1 0x7 PUSH1 0x20 MSTORE PUSH1 0x40 DUP2 KECCAK256 SSTORE PUSH2 0x2521 PUSH1 0x5 DUP6 PUSH2 0x302F JUMP JUMPDEST PUSH2 0x2571 JUMPI PUSH1 0x5 DUP1 SLOAD PUSH1 0x1 DUP2 ADD DUP3 SSTORE PUSH1 0x0 SWAP2 SWAP1 SWAP2 MSTORE PUSH32 0x36B6384B5ECA791C62761152D0C79BB0604C104A5FB6F4EB0703F3154BB3DB0 ADD DUP1 SLOAD PUSH1 0x1 PUSH1 0x1 PUSH1 0xA0 SHL SUB NOT AND PUSH1 0x1 PUSH1 0x1 PUSH1 0xA0 SHL SUB DUP7 AND OR SWAP1 SSTORE JUMPDEST POP PUSH1 0x1 PUSH1 0x1 PUSH1 0xA0 SHL SUB DUP4 AND PUSH1 0x0 SWAP1 DUP2 MSTORE PUSH1 0x6 PUSH1 0x20 MSTORE PUSH1 0x40 SWAP1 KECCAK256 DUP1 SLOAD PUSH1 0xFF DUP2 AND ISZERO PUSH1 0xFF NOT SWAP1 SWAP2 AND DUP2 OR SWAP1 SWAP2 SSTORE PUSH2 0x2CD3 JUMP JUMPDEST PUSH1 0x1 DUP6 PUSH1 0x9 DUP2 GT ISZERO PUSH2 0x25AF JUMPI INVALID JUMPDEST EQ ISZERO PUSH2 0x266B JUMPI PUSH2 0x25C2 PUSH1 0xA PUSH1 0x9 DUP7 PUSH2 0x2F45 JUMP JUMPDEST ISZERO PUSH2 0x263B JUMPI PUSH1 0x1 PUSH1 0x1 PUSH1 0xA0 SHL SUB DUP5 AND PUSH1 0x0 SWAP1 DUP2 MSTORE PUSH1 0xA PUSH1 0x20 MSTORE PUSH1 0x40 DUP2 KECCAK256 SSTORE PUSH2 0x25EB PUSH1 0x8 DUP6 PUSH2 0x302F JUMP JUMPDEST PUSH2 0x263B JUMPI PUSH1 0x8 DUP1 SLOAD PUSH1 0x1 DUP2 ADD DUP3 SSTORE PUSH1 0x0 SWAP2 SWAP1 SWAP2 MSTORE PUSH32 0xF3F7A9FE364FAAB93B216DA50A3214154F22A0A2B415B23A84C8169E8B636EE3 ADD DUP1 SLOAD PUSH1 0x1 PUSH1 0x1 PUSH1 0xA0 SHL SUB NOT AND PUSH1 0x1 PUSH1 0x1 PUSH1 0xA0 SHL SUB DUP7 AND OR SWAP1 SSTORE JUMPDEST POP PUSH1 0x1 PUSH1 0x1 PUSH1 0xA0 SHL SUB DUP4 AND PUSH1 0x0 SWAP1 DUP2 MSTORE PUSH1 0x9 PUSH1 0x20 MSTORE PUSH1 0x40 SWAP1 KECCAK256 DUP1 SLOAD PUSH1 0xFF DUP2 AND ISZERO PUSH1 0xFF NOT SWAP1 SWAP2 AND DUP2 OR SWAP1 SWAP2 SSTORE PUSH2 0x2CD3 JUMP JUMPDEST PUSH1 0x2 DUP6 PUSH1 0x9 DUP2 GT ISZERO PUSH2 0x2679 JUMPI INVALID JUMPDEST EQ ISZERO PUSH2 0x2735 JUMPI PUSH2 0x268C PUSH1 0x4 PUSH1 0x3 DUP7 PUSH2 0x2F45 JUMP JUMPDEST ISZERO PUSH2 0x2705 JUMPI PUSH1 0x1 PUSH1 0x1 PUSH1 0xA0 SHL SUB DUP5 AND PUSH1 0x0 SWAP1 DUP2 MSTORE PUSH1 0x4 PUSH1 0x20 MSTORE PUSH1 0x40 DUP2 KECCAK256 SSTORE PUSH2 0x26B5 PUSH1 0x2 DUP6 PUSH2 0x302F JUMP JUMPDEST PUSH2 0x2705 JUMPI PUSH1 0x2 DUP1 SLOAD PUSH1 0x1 DUP2 ADD DUP3 SSTORE PUSH1 0x0 SWAP2 SWAP1 SWAP2 MSTORE PUSH32 0x405787FA12A823E0F2B7631CC41B3BA8828B3321CA811111FA75CD3AA3BB5ACE ADD DUP1 SLOAD PUSH1 0x1 PUSH1 0x1 PUSH1 0xA0 SHL SUB NOT AND PUSH1 0x1 PUSH1 0x1 PUSH1 0xA0 SHL SUB DUP7 AND OR SWAP1 SSTORE JUMPDEST POP PUSH1 0x1 PUSH1 0x1 PUSH1 0xA0 SHL SUB DUP4 AND PUSH1 0x0 SWAP1 DUP2 MSTORE PUSH1 0x3 PUSH1 0x20 MSTORE PUSH1 0x40 SWAP1 KECCAK256 DUP1 SLOAD PUSH1 0xFF DUP2 AND ISZERO PUSH1 0xFF NOT SWAP1 SWAP2 AND DUP2 OR SWAP1 SWAP2 SSTORE PUSH2 0x2CD3 JUMP JUMPDEST PUSH1 0x3 DUP6 PUSH1 0x9 DUP2 GT ISZERO PUSH2 0x2743 JUMPI INVALID JUMPDEST EQ ISZERO PUSH2 0x283C JUMPI PUSH2 0x2756 PUSH1 0x14 PUSH1 0x13 DUP7 PUSH2 0x2F45 JUMP JUMPDEST ISZERO PUSH2 0x280C JUMPI PUSH1 0x12 DUP1 SLOAD PUSH1 0x1 DUP2 ADD DUP3 SSTORE PUSH32 0xBB8A6A4669BA250D26CD7A459ECA9D215F8307E33AEBE50379BC5A3617EC3444 ADD DUP1 SLOAD PUSH1 0x1 PUSH1 0x1 PUSH1 0xA0 SHL SUB NOT AND PUSH1 0x1 PUSH1 0x1 PUSH1 0xA0 SHL SUB DUP8 AND SWAP1 DUP2 OR SWAP1 SWAP2 SSTORE PUSH1 0x0 SWAP1 DUP2 MSTORE PUSH1 0x14 PUSH1 0x20 MSTORE PUSH1 0x40 DUP2 KECCAK256 SSTORE PUSH2 0x27BC SWAP1 DUP6 PUSH2 0x302F JUMP JUMPDEST PUSH2 0x280C JUMPI PUSH1 0x12 DUP1 SLOAD PUSH1 0x1 DUP2 ADD DUP3 SSTORE PUSH1 0x0 SWAP2 SWAP1 SWAP2 MSTORE PUSH32 0xBB8A6A4669BA250D26CD7A459ECA9D215F8307E33AEBE50379BC5A3617EC3444 ADD DUP1 SLOAD PUSH1 0x1 PUSH1 0x1 PUSH1 0xA0 SHL SUB NOT AND PUSH1 0x1 PUSH1 0x1 PUSH1 0xA0 SHL SUB DUP7 AND OR SWAP1 SSTORE JUMPDEST POP PUSH1 0x1 PUSH1 0x1 PUSH1 0xA0 SHL SUB DUP4 AND PUSH1 0x0 SWAP1 DUP2 MSTORE PUSH1 0x13 PUSH1 0x20 MSTORE PUSH1 0x40 SWAP1 KECCAK256 DUP1 SLOAD PUSH1 0xFF DUP2 AND ISZERO PUSH1 0xFF NOT SWAP1 SWAP2 AND DUP2 OR SWAP1 SWAP2 SSTORE PUSH2 0x2CD3 JUMP JUMPDEST PUSH1 0x4 DUP6 PUSH1 0x9 DUP2 GT ISZERO PUSH2 0x284A JUMPI INVALID JUMPDEST EQ ISZERO PUSH2 0x2943 JUMPI PUSH2 0x285D PUSH1 0x10 PUSH1 0xF DUP7 PUSH2 0x2F45 JUMP JUMPDEST ISZERO PUSH2 0x2913 JUMPI PUSH1 0xE DUP1 SLOAD PUSH1 0x1 DUP2 ADD DUP3 SSTORE PUSH32 0xBB7B4A454DC3493923482F07822329ED19E8244EFF582CC204F8554C3620C3FD ADD DUP1 SLOAD PUSH1 0x1 PUSH1 0x1 PUSH1 0xA0 SHL SUB NOT AND PUSH1 0x1 PUSH1 0x1 PUSH1 0xA0 SHL SUB DUP8 AND SWAP1 DUP2 OR SWAP1 SWAP2 SSTORE PUSH1 0x0 SWAP1 DUP2 MSTORE PUSH1 0x10 PUSH1 0x20 MSTORE PUSH1 0x40 DUP2 KECCAK256 SSTORE PUSH2 0x28C3 SWAP1 DUP6 PUSH2 0x302F JUMP JUMPDEST PUSH2 0x2913 JUMPI PUSH1 0xE DUP1 SLOAD PUSH1 0x1 DUP2 ADD DUP3 SSTORE PUSH1 0x0 SWAP2 SWAP1 SWAP2 MSTORE PUSH32 0xBB7B4A454DC3493923482F07822329ED19E8244EFF582CC204F8554C3620C3FD ADD DUP1 SLOAD PUSH1 0x1 PUSH1 0x1 PUSH1 0xA0 SHL SUB NOT AND PUSH1 0x1 PUSH1 0x1 PUSH1 0xA0 SHL SUB DUP7 AND OR SWAP1 SSTORE JUMPDEST POP PUSH1 0x1 PUSH1 0x1 PUSH1 0xA0 SHL SUB DUP4 AND PUSH1 0x0 SWAP1 DUP2 MSTORE PUSH1 0xF PUSH1 0x20 MSTORE PUSH1 0x40 SWAP1 KECCAK256 DUP1 SLOAD PUSH1 0xFF DUP2 AND ISZERO PUSH1 0xFF NOT SWAP1 SWAP2 AND DUP2 OR SWAP1 SWAP2 SSTORE PUSH2 0x2CD3 JUMP JUMPDEST PUSH1 0x5 DUP6 PUSH1 0x9 DUP2 GT ISZERO PUSH2 0x2951 JUMPI INVALID JUMPDEST EQ ISZERO PUSH2 0x2A2F JUMPI PUSH2 0x2964 PUSH1 0xD PUSH1 0xC DUP7 PUSH2 0x2F45 JUMP JUMPDEST ISZERO PUSH2 0x29DD JUMPI PUSH1 0x1 PUSH1 0x1 PUSH1 0xA0 SHL SUB DUP5 AND PUSH1 0x0 SWAP1 DUP2 MSTORE PUSH1 0xD PUSH1 0x20 MSTORE PUSH1 0x40 DUP2 KECCAK256 SSTORE PUSH2 0x298D PUSH1 0xB DUP6 PUSH2 0x302F JUMP JUMPDEST PUSH2 0x29DD JUMPI PUSH1 0xB DUP1 SLOAD PUSH1 0x1 DUP2 ADD DUP3 SSTORE PUSH1 0x0 SWAP2 SWAP1 SWAP2 MSTORE PUSH32 0x175B7A638427703F0DBE7BB9BBF987A2551717B34E79F33B5B1008D1FA01DB9 ADD DUP1 SLOAD PUSH1 0x1 PUSH1 0x1 PUSH1 0xA0 SHL SUB NOT AND PUSH1 0x1 PUSH1 0x1 PUSH1 0xA0 SHL SUB DUP7 AND OR SWAP1 SSTORE JUMPDEST POP PUSH1 0x1 PUSH1 0x1 PUSH1 0xA0 SHL SUB DUP4 DUP2 AND PUSH1 0x0 SWAP1 DUP2 MSTORE PUSH1 0xC PUSH1 0x20 SWAP1 DUP2 MSTORE PUSH1 0x40 DUP1 DUP4 KECCAK256 DUP1 SLOAD PUSH1 0xFF DUP2 AND ISZERO PUSH1 0xFF NOT SWAP1 SWAP2 AND DUP2 OR SWAP1 SWAP2 SSTORE PUSH1 0x11 SWAP1 SWAP3 MSTORE SWAP1 SWAP2 KECCAK256 DUP1 SLOAD PUSH1 0x1 PUSH1 0x1 PUSH1 0xA0 SHL SUB NOT AND SWAP3 DUP6 AND SWAP3 SWAP1 SWAP3 OR SWAP1 SWAP2 SSTORE PUSH2 0x2CD3 JUMP JUMPDEST PUSH1 0x6 DUP6 PUSH1 0x9 DUP2 GT ISZERO PUSH2 0x2A3D JUMPI INVALID JUMPDEST EQ ISZERO PUSH2 0x2AF9 JUMPI PUSH2 0x2A50 PUSH1 0x17 PUSH1 0x16 DUP7 PUSH2 0x2F45 JUMP JUMPDEST ISZERO PUSH2 0x2AC9 JUMPI PUSH1 0x1 PUSH1 0x1 PUSH1 0xA0 SHL SUB DUP5 AND PUSH1 0x0 SWAP1 DUP2 MSTORE PUSH1 0x17 PUSH1 0x20 MSTORE PUSH1 0x40 DUP2 KECCAK256 SSTORE PUSH2 0x2A79 PUSH1 0x15 DUP6 PUSH2 0x302F JUMP JUMPDEST PUSH2 0x2AC9 JUMPI PUSH1 0x15 DUP1 SLOAD PUSH1 0x1 DUP2 ADD DUP3 SSTORE PUSH1 0x0 SWAP2 SWAP1 SWAP2 MSTORE PUSH32 0x55F448FDEA98C4D29EB340757EF0A66CD03DBB9538908A6A81D96026B71EC475 ADD DUP1 SLOAD PUSH1 0x1 PUSH1 0x1 PUSH1 0xA0 SHL SUB NOT AND PUSH1 0x1 PUSH1 0x1 PUSH1 0xA0 SHL SUB DUP7 AND OR SWAP1 SSTORE JUMPDEST POP PUSH1 0x1 PUSH1 0x1 PUSH1 0xA0 SHL SUB DUP4 AND PUSH1 0x0 SWAP1 DUP2 MSTORE PUSH1 0x16 PUSH1 0x20 MSTORE PUSH1 0x40 SWAP1 KECCAK256 DUP1 SLOAD PUSH1 0xFF DUP2 AND ISZERO PUSH1 0xFF NOT SWAP1 SWAP2 AND DUP2 OR SWAP1 SWAP2 SSTORE PUSH2 0x2CD3 JUMP JUMPDEST PUSH1 0x7 DUP6 PUSH1 0x9 DUP2 GT ISZERO PUSH2 0x2B07 JUMPI INVALID JUMPDEST EQ ISZERO PUSH2 0x2BC3 JUMPI PUSH2 0x2B1A PUSH1 0x1A PUSH1 0x19 DUP7 PUSH2 0x2F45 JUMP JUMPDEST ISZERO PUSH2 0x2B93 JUMPI PUSH1 0x1 PUSH1 0x1 PUSH1 0xA0 SHL SUB DUP5 AND PUSH1 0x0 SWAP1 DUP2 MSTORE PUSH1 0x1A PUSH1 0x20 MSTORE PUSH1 0x40 DUP2 KECCAK256 SSTORE PUSH2 0x2B43 PUSH1 0x18 DUP6 PUSH2 0x302F JUMP JUMPDEST PUSH2 0x2B93 JUMPI PUSH1 0x18 DUP1 SLOAD PUSH1 0x1 DUP2 ADD DUP3 SSTORE PUSH1 0x0 SWAP2 SWAP1 SWAP2 MSTORE PUSH32 0xB13D2D76D1F4B7BE834882E410B3E3A8AFAF69F83600AE24DB354391D2378D2E ADD DUP1 SLOAD PUSH1 0x1 PUSH1 0x1 PUSH1 0xA0 SHL SUB NOT AND PUSH1 0x1 PUSH1 0x1 PUSH1 0xA0 SHL SUB DUP7 AND OR SWAP1 SSTORE JUMPDEST POP PUSH1 0x1 PUSH1 0x1 PUSH1 0xA0 SHL SUB DUP4 AND PUSH1 0x0 SWAP1 DUP2 MSTORE PUSH1 0x19 PUSH1 0x20 MSTORE PUSH1 0x40 SWAP1 KECCAK256 DUP1 SLOAD PUSH1 0xFF DUP2 AND ISZERO PUSH1 0xFF NOT SWAP1 SWAP2 AND DUP2 OR SWAP1 SWAP2 SSTORE PUSH2 0x2CD3 JUMP JUMPDEST PUSH1 0x8 DUP6 PUSH1 0x9 DUP2 GT ISZERO PUSH2 0x2BD1 JUMPI INVALID JUMPDEST EQ ISZERO PUSH2 0x2C8D JUMPI PUSH2 0x2BE4 PUSH1 0x1E PUSH1 0x1D DUP7 PUSH2 0x2F45 JUMP JUMPDEST ISZERO PUSH2 0x2C5D JUMPI PUSH1 0x1 PUSH1 0x1 PUSH1 0xA0 SHL SUB DUP5 AND PUSH1 0x0 SWAP1 DUP2 MSTORE PUSH1 0x1E PUSH1 0x20 MSTORE PUSH1 0x40 DUP2 KECCAK256 SSTORE PUSH2 0x2C0D PUSH1 0x1C DUP6 PUSH2 0x302F JUMP JUMPDEST PUSH2 0x2C5D JUMPI PUSH1 0x1C DUP1 SLOAD PUSH1 0x1 DUP2 ADD DUP3 SSTORE PUSH1 0x0 SWAP2 SWAP1 SWAP2 MSTORE PUSH32 0xE4562A10381DEC21B205ED72637E6B1B523BDD0E4D4D50AF5CD23DD4500A211 ADD DUP1 SLOAD PUSH1 0x1 PUSH1 0x1 PUSH1 0xA0 SHL SUB NOT AND PUSH1 0x1 PUSH1 0x1 PUSH1 0xA0 SHL SUB DUP7 AND OR SWAP1 SSTORE JUMPDEST POP PUSH1 0x1 PUSH1 0x1 PUSH1 0xA0 SHL SUB DUP4 AND PUSH1 0x0 SWAP1 DUP2 MSTORE PUSH1 0x1D PUSH1 0x20 MSTORE PUSH1 0x40 SWAP1 KECCAK256 DUP1 SLOAD PUSH1 0xFF DUP2 AND ISZERO PUSH1 0xFF NOT SWAP1 SWAP2 AND DUP2 OR SWAP1 SWAP2 SSTORE PUSH2 0x2CD3 JUMP JUMPDEST PUSH1 0x9 DUP6 PUSH1 0x9 DUP2 GT ISZERO PUSH2 0x2C9B JUMPI INVALID JUMPDEST EQ ISZERO PUSH2 0x2CC9 JUMPI POP PUSH1 0x0 PUSH1 0x20 SSTORE PUSH1 0x1F DUP1 SLOAD PUSH1 0x1 PUSH1 0x1 PUSH1 0xA0 SHL SUB NOT AND PUSH1 0x1 PUSH1 0x1 PUSH1 0xA0 SHL SUB DUP6 AND OR SWAP1 SSTORE PUSH1 0x1 PUSH2 0x2CD3 JUMP JUMPDEST PUSH1 0x0 SWAP2 POP POP PUSH2 0x1E4F JUMP JUMPDEST DUP5 PUSH1 0x9 DUP2 GT ISZERO PUSH2 0x2CDF JUMPI INVALID JUMPDEST PUSH1 0x40 DUP1 MLOAD PUSH1 0x1 PUSH1 0x1 PUSH1 0xA0 SHL SUB DUP8 AND DUP2 MSTORE DUP4 ISZERO ISZERO PUSH1 0x20 DUP3 ADD MSTORE DUP2 MLOAD PUSH32 0xDCACB7E392F3D6A216ED2660E3DCFD40B7793D33591DB2BA185A6B8E44FC477 SWAP3 SWAP2 DUP2 SWAP1 SUB SWAP1 SWAP2 ADD SWAP1 LOG2 POP PUSH1 0x1 SWAP5 SWAP4 POP POP POP POP JUMP JUMPDEST PUSH1 0x22 SLOAD DUP2 JUMP JUMPDEST PUSH1 0xB DUP2 DUP2 SLOAD DUP2 LT PUSH2 0xBAE JUMPI PUSH1 0x0 DUP1 REVERT JUMPDEST PUSH1 0x10 PUSH1 0x20 MSTORE PUSH1 0x0 SWAP1 DUP2 MSTORE PUSH1 0x40 SWAP1 KECCAK256 SLOAD DUP2 JUMP JUMPDEST PUSH1 0x0 PUSH2 0x1E4F DUP4 DUP4 PUSH1 0x40 MLOAD DUP1 PUSH1 0x40 ADD PUSH1 0x40 MSTORE DUP1 PUSH1 0x1E DUP2 MSTORE PUSH1 0x20 ADD PUSH32 0x536166654D6174683A207375627472616374696F6E206F766572666C6F770000 DUP2 MSTORE POP PUSH2 0x307F JUMP JUMPDEST PUSH1 0x40 DUP1 MLOAD PUSH1 0x1 PUSH1 0x1 PUSH1 0xA0 SHL SUB DUP5 AND PUSH1 0x24 DUP3 ADD MSTORE PUSH1 0x44 DUP1 DUP3 ADD DUP5 SWAP1 MSTORE DUP3 MLOAD DUP1 DUP4 SUB SWAP1 SWAP2 ADD DUP2 MSTORE PUSH1 0x64 SWAP1 SWAP2 ADD SWAP1 SWAP2 MSTORE PUSH1 0x20 DUP2 ADD DUP1 MLOAD PUSH1 0x1 PUSH1 0x1 PUSH1 0xE0 SHL SUB AND PUSH4 0xA9059CBB PUSH1 0xE0 SHL OR SWAP1 MSTORE PUSH2 0x2DEB SWAP1 DUP5 SWAP1 PUSH2 0x3116 JUMP JUMPDEST POP POP POP JUMP JUMPDEST PUSH1 0x0 DUP3 DUP3 ADD DUP4 DUP2 LT ISZERO PUSH2 0x1E4F JUMPI PUSH1 0x40 DUP1 MLOAD PUSH3 0x461BCD PUSH1 0xE5 SHL DUP2 MSTORE PUSH1 0x20 PUSH1 0x4 DUP3 ADD MSTORE PUSH1 0x1B PUSH1 0x24 DUP3 ADD MSTORE PUSH32 0x536166654D6174683A206164646974696F6E206F766572666C6F770000000000 PUSH1 0x44 DUP3 ADD MSTORE SWAP1 MLOAD SWAP1 DUP2 SWAP1 SUB PUSH1 0x64 ADD SWAP1 REVERT JUMPDEST PUSH1 0x0 DUP3 PUSH2 0x2E59 JUMPI POP PUSH1 0x0 PUSH2 0x1540 JUMP JUMPDEST DUP3 DUP3 MUL DUP3 DUP5 DUP3 DUP2 PUSH2 0x2E66 JUMPI INVALID JUMPDEST DIV EQ PUSH2 0x1E4F JUMPI PUSH1 0x40 MLOAD PUSH3 0x461BCD PUSH1 0xE5 SHL DUP2 MSTORE PUSH1 0x4 ADD DUP1 DUP1 PUSH1 0x20 ADD DUP3 DUP2 SUB DUP3 MSTORE PUSH1 0x21 DUP2 MSTORE PUSH1 0x20 ADD DUP1 PUSH2 0x33FF PUSH1 0x21 SWAP2 CODECOPY PUSH1 0x40 ADD SWAP2 POP POP PUSH1 0x40 MLOAD DUP1 SWAP2 SUB SWAP1 REVERT JUMPDEST PUSH1 0x0 PUSH2 0x1E4F DUP4 DUP4 PUSH1 0x40 MLOAD DUP1 PUSH1 0x40 ADD PUSH1 0x40 MSTORE DUP1 PUSH1 0x1A DUP2 MSTORE PUSH1 0x20 ADD PUSH32 0x536166654D6174683A206469766973696F6E206279207A65726F000000000000 DUP2 MSTORE POP PUSH2 0x31C7 JUMP JUMPDEST PUSH1 0x40 DUP1 MLOAD PUSH1 0x1 PUSH1 0x1 PUSH1 0xA0 SHL SUB DUP1 DUP7 AND PUSH1 0x24 DUP4 ADD MSTORE DUP5 AND PUSH1 0x44 DUP3 ADD MSTORE PUSH1 0x64 DUP1 DUP3 ADD DUP5 SWAP1 MSTORE DUP3 MLOAD DUP1 DUP4 SUB SWAP1 SWAP2 ADD DUP2 MSTORE PUSH1 0x84 SWAP1 SWAP2 ADD SWAP1 SWAP2 MSTORE PUSH1 0x20 DUP2 ADD DUP1 MLOAD PUSH1 0x1 PUSH1 0x1 PUSH1 0xE0 SHL SUB AND PUSH4 0x23B872DD PUSH1 0xE0 SHL OR SWAP1 MSTORE PUSH2 0x2F3F SWAP1 DUP6 SWAP1 PUSH2 0x3116 JUMP JUMPDEST POP POP POP POP JUMP JUMPDEST PUSH1 0x1 PUSH1 0x1 PUSH1 0xA0 SHL SUB DUP2 AND PUSH1 0x0 SWAP1 DUP2 MSTORE PUSH1 0x20 DUP4 SWAP1 MSTORE PUSH1 0x40 DUP2 KECCAK256 SLOAD PUSH1 0xFF AND PUSH2 0x3025 JUMPI PUSH1 0x1 PUSH1 0x1 PUSH1 0xA0 SHL SUB DUP3 AND PUSH1 0x0 SWAP1 DUP2 MSTORE PUSH1 0x20 DUP6 SWAP1 MSTORE PUSH1 0x40 SWAP1 KECCAK256 SLOAD PUSH2 0x2FBC JUMPI PUSH1 0x40 DUP1 MLOAD PUSH3 0x461BCD PUSH1 0xE5 SHL DUP2 MSTORE PUSH1 0x20 PUSH1 0x4 DUP3 ADD MSTORE PUSH1 0xA PUSH1 0x24 DUP3 ADD MSTORE PUSH10 0x4D757374207175657565 PUSH1 0xB0 SHL PUSH1 0x44 DUP3 ADD MSTORE SWAP1 MLOAD SWAP1 DUP2 SWAP1 SUB PUSH1 0x64 ADD SWAP1 REVERT JUMPDEST PUSH1 0x1 PUSH1 0x1 PUSH1 0xA0 SHL SUB DUP3 AND PUSH1 0x0 SWAP1 DUP2 MSTORE PUSH1 0x20 DUP6 SWAP1 MSTORE PUSH1 0x40 SWAP1 KECCAK256 SLOAD NUMBER LT ISZERO PUSH2 0x301D JUMPI PUSH1 0x40 DUP1 MLOAD PUSH3 0x461BCD PUSH1 0xE5 SHL DUP2 MSTORE PUSH1 0x20 PUSH1 0x4 DUP3 ADD MSTORE PUSH1 0x11 PUSH1 0x24 DUP3 ADD MSTORE PUSH17 0x145D595D59481B9BDD08195E1C1A5C9959 PUSH1 0x7A SHL PUSH1 0x44 DUP3 ADD MSTORE SWAP1 MLOAD SWAP1 DUP2 SWAP1 SUB PUSH1 0x64 ADD SWAP1 REVERT JUMPDEST POP PUSH1 0x1 PUSH2 0x1E4F JUMP JUMPDEST POP PUSH1 0x0 SWAP4 SWAP3 POP POP POP JUMP JUMPDEST PUSH1 0x0 DUP1 JUMPDEST DUP4 SLOAD DUP2 LT ISZERO PUSH2 0x3025 JUMPI DUP3 PUSH1 0x1 PUSH1 0x1 PUSH1 0xA0 SHL SUB AND DUP5 DUP3 DUP2 SLOAD DUP2 LT PUSH2 0x3052 JUMPI INVALID JUMPDEST PUSH1 0x0 SWAP2 DUP3 MSTORE PUSH1 0x20 SWAP1 SWAP2 KECCAK256 ADD SLOAD PUSH1 0x1 PUSH1 0x1 PUSH1 0xA0 SHL SUB AND EQ ISZERO PUSH2 0x3077 JUMPI PUSH1 0x1 SWAP2 POP POP PUSH2 0x1540 JUMP JUMPDEST PUSH1 0x1 ADD PUSH2 0x3033 JUMP JUMPDEST PUSH1 0x0 DUP2 DUP5 DUP5 GT ISZERO PUSH2 0x310E JUMPI PUSH1 0x40 MLOAD PUSH3 0x461BCD PUSH1 0xE5 SHL DUP2 MSTORE PUSH1 0x4 ADD DUP1 DUP1 PUSH1 0x20 ADD DUP3 DUP2 SUB DUP3 MSTORE DUP4 DUP2 DUP2 MLOAD DUP2 MSTORE PUSH1 0x20 ADD SWAP2 POP DUP1 MLOAD SWAP1 PUSH1 0x20 ADD SWAP1 DUP1 DUP4 DUP4 PUSH1 0x0 JUMPDEST DUP4 DUP2 LT ISZERO PUSH2 0x30D3 JUMPI DUP2 DUP2 ADD MLOAD DUP4 DUP3 ADD MSTORE PUSH1 0x20 ADD PUSH2 0x30BB JUMP JUMPDEST POP POP POP POP SWAP1 POP SWAP1 DUP2 ADD SWAP1 PUSH1 0x1F AND DUP1 ISZERO PUSH2 0x3100 JUMPI DUP1 DUP3 SUB DUP1 MLOAD PUSH1 0x1 DUP4 PUSH1 0x20 SUB PUSH2 0x100 EXP SUB NOT AND DUP2 MSTORE PUSH1 0x20 ADD SWAP2 POP JUMPDEST POP SWAP3 POP POP POP PUSH1 0x40 MLOAD DUP1 SWAP2 SUB SWAP1 REVERT JUMPDEST POP POP POP SWAP1 SUB SWAP1 JUMP JUMPDEST PUSH1 0x60 PUSH2 0x316B DUP3 PUSH1 0x40 MLOAD DUP1 PUSH1 0x40 ADD PUSH1 0x40 MSTORE DUP1 PUSH1 0x20 DUP2 MSTORE PUSH1 0x20 ADD PUSH32 0x5361666545524332303A206C6F772D6C6576656C2063616C6C206661696C6564 DUP2 MSTORE POP DUP6 PUSH1 0x1 PUSH1 0x1 PUSH1 0xA0 SHL SUB AND PUSH2 0x322C SWAP1 SWAP3 SWAP2 SWAP1 PUSH4 0xFFFFFFFF AND JUMP JUMPDEST DUP1 MLOAD SWAP1 SWAP2 POP ISZERO PUSH2 0x2DEB JUMPI DUP1 DUP1 PUSH1 0x20 ADD SWAP1 MLOAD PUSH1 0x20 DUP2 LT ISZERO PUSH2 0x318A JUMPI PUSH1 0x0 DUP1 REVERT JUMPDEST POP MLOAD PUSH2 0x2DEB JUMPI PUSH1 0x40 MLOAD PUSH3 0x461BCD PUSH1 0xE5 SHL DUP2 MSTORE PUSH1 0x4 ADD DUP1 DUP1 PUSH1 0x20 ADD DUP3 DUP2 SUB DUP3 MSTORE PUSH1 0x2A DUP2 MSTORE PUSH1 0x20 ADD DUP1 PUSH2 0x3460 PUSH1 0x2A SWAP2 CODECOPY PUSH1 0x40 ADD SWAP2 POP POP PUSH1 0x40 MLOAD DUP1 SWAP2 SUB SWAP1 REVERT JUMPDEST PUSH1 0x0 DUP2 DUP4 PUSH2 0x3216 JUMPI PUSH1 0x40 MLOAD PUSH3 0x461BCD PUSH1 0xE5 SHL DUP2 MSTORE PUSH1 0x20 PUSH1 0x4 DUP3 ADD DUP2 DUP2 MSTORE DUP4 MLOAD PUSH1 0x24 DUP5 ADD MSTORE DUP4 MLOAD SWAP1 SWAP3 DUP4 SWAP3 PUSH1 0x44 SWAP1 SWAP2 ADD SWAP2 SWAP1 DUP6 ADD SWAP1 DUP1 DUP4 DUP4 PUSH1 0x0 DUP4 ISZERO PUSH2 0x30D3 JUMPI DUP2 DUP2 ADD MLOAD DUP4 DUP3 ADD MSTORE PUSH1 0x20 ADD PUSH2 0x30BB JUMP JUMPDEST POP PUSH1 0x0 DUP4 DUP6 DUP2 PUSH2 0x3222 JUMPI INVALID JUMPDEST DIV SWAP6 SWAP5 POP POP POP POP POP JUMP JUMPDEST PUSH1 0x60 PUSH2 0x323B DUP5 DUP5 PUSH1 0x0 DUP6 PUSH2 0x3243 JUMP JUMPDEST SWAP5 SWAP4 POP POP POP POP JUMP JUMPDEST PUSH1 0x60 PUSH2 0x324E DUP6 PUSH2 0x33B0 JUMP JUMPDEST PUSH2 0x329F JUMPI PUSH1 0x40 DUP1 MLOAD PUSH3 0x461BCD PUSH1 0xE5 SHL DUP2 MSTORE PUSH1 0x20 PUSH1 0x4 DUP3 ADD MSTORE PUSH1 0x1D PUSH1 0x24 DUP3 ADD MSTORE PUSH32 0x416464726573733A2063616C6C20746F206E6F6E2D636F6E7472616374000000 PUSH1 0x44 DUP3 ADD MSTORE SWAP1 MLOAD SWAP1 DUP2 SWAP1 SUB PUSH1 0x64 ADD SWAP1 REVERT JUMPDEST PUSH1 0x0 PUSH1 0x60 DUP7 PUSH1 0x1 PUSH1 0x1 PUSH1 0xA0 SHL SUB AND DUP6 DUP8 PUSH1 0x40 MLOAD DUP1 DUP3 DUP1 MLOAD SWAP1 PUSH1 0x20 ADD SWAP1 DUP1 DUP4 DUP4 JUMPDEST PUSH1 0x20 DUP4 LT PUSH2 0x32DE JUMPI DUP1 MLOAD DUP3 MSTORE PUSH1 0x1F NOT SWAP1 SWAP3 ADD SWAP2 PUSH1 0x20 SWAP2 DUP3 ADD SWAP2 ADD PUSH2 0x32BF JUMP JUMPDEST PUSH1 0x1 DUP4 PUSH1 0x20 SUB PUSH2 0x100 EXP SUB DUP1 NOT DUP3 MLOAD AND DUP2 DUP5 MLOAD AND DUP1 DUP3 OR DUP6 MSTORE POP POP POP POP POP POP SWAP1 POP ADD SWAP2 POP POP PUSH1 0x0 PUSH1 0x40 MLOAD DUP1 DUP4 SUB DUP2 DUP6 DUP8 GAS CALL SWAP3 POP POP POP RETURNDATASIZE DUP1 PUSH1 0x0 DUP2 EQ PUSH2 0x3340 JUMPI PUSH1 0x40 MLOAD SWAP2 POP PUSH1 0x1F NOT PUSH1 0x3F RETURNDATASIZE ADD AND DUP3 ADD PUSH1 0x40 MSTORE RETURNDATASIZE DUP3 MSTORE RETURNDATASIZE PUSH1 0x0 PUSH1 0x20 DUP5 ADD RETURNDATACOPY PUSH2 0x3345 JUMP JUMPDEST PUSH1 0x60 SWAP2 POP JUMPDEST POP SWAP2 POP SWAP2 POP DUP2 ISZERO PUSH2 0x3359 JUMPI SWAP2 POP PUSH2 0x323B SWAP1 POP JUMP JUMPDEST DUP1 MLOAD ISZERO PUSH2 0x3369 JUMPI DUP1 MLOAD DUP1 DUP3 PUSH1 0x20 ADD REVERT JUMPDEST PUSH1 0x40 MLOAD PUSH3 0x461BCD PUSH1 0xE5 SHL DUP2 MSTORE PUSH1 0x20 PUSH1 0x4 DUP3 ADD DUP2 DUP2 MSTORE DUP7 MLOAD PUSH1 0x24 DUP5 ADD MSTORE DUP7 MLOAD DUP8 SWAP4 SWAP2 SWAP3 DUP4 SWAP3 PUSH1 0x44 ADD SWAP2 SWAP1 DUP6 ADD SWAP1 DUP1 DUP4 DUP4 PUSH1 0x0 DUP4 ISZERO PUSH2 0x30D3 JUMPI DUP2 DUP2 ADD MLOAD DUP4 DUP3 ADD MSTORE PUSH1 0x20 ADD PUSH2 0x30BB JUMP JUMPDEST EXTCODESIZE ISZERO ISZERO SWAP1 JUMP INVALID 0x4F PUSH24 0x6E61626C653A206E6577206F776E65722069732074686520 PUSH27 0x65726F20616464726573734F776E61626C653A206D757374206265 KECCAK256 PUSH15 0x6577206F776E657220746F2070756C PUSH13 0x536166654D6174683A206D756C PUSH21 0x69706C69636174696F6E206F766572666C6F774F77 PUSH15 0x61626C653A2063616C6C6572206973 KECCAK256 PUSH15 0x6F7420746865206F776E657293BB8E 0xDD CALLDATALOAD SWAP9 SELFBALANCE MOD 0xEE 0xE1 0xB9 0x25 COINBASE 0x28 0x1F PUSH32 0x62D33C01C5B2EC0929A113603BD21D665361666545524332303A204552433230 KECCAK256 PUSH16 0x7065726174696F6E20646964206E6F74 KECCAK256 PUSH20 0x756363656564A2646970667358221220FE2CA382 PUSH5 0xADB3C95B00 0x4C 0xB7 0xF6 SWAP14 EXTCODEHASH DUP9 MUL 0xB4 0x5D PUSH16 0xA7B4FF6FDFC3DD6AB2672CFD64736F6C PUSH4 0x43000705 STOP CALLER "
		},
		"gasEstimates": {
			"creation": {
				"codeDepositCost": "2700600",
				"executionCost": "infinite",
				"totalCost": "infinite"
			},
			"external": {
				"LiquidityDepositorQueue(address)": "1256",
				"LiquidityManagerQueue(address)": "1214",
				"LiquidityTokenQueue(address)": "1170",
				"OHM()": "infinite",
				"ReserveManagerQueue(address)": "1236",
				"auditReserves()": "infinite",
				"blocksNeededForQueue()": "infinite",
				"bondCalculator(address)": "1275",
				"debtorBalance(address)": "1259",
				"debtorQueue(address)": "1257",
				"debtors(uint256)": "2081",
				"deposit(uint256,address,uint256)": "infinite",
				"excessReserves()": "infinite",
				"incurDebt(uint256,address)": "infinite",
				"isDebtor(address)": "1225",
				"isLiquidityDepositor(address)": "1270",
				"isLiquidityManager(address)": "1269",
				"isLiquidityToken(address)": "1292",
				"isReserveDepositor(address)": "1249",
				"isReserveManager(address)": "1203",
				"isReserveSpender(address)": "1269",
				"isReserveToken(address)": "1204",
				"isRewardManager(address)": "1270",
				"liquidityDepositors(uint256)": "2038",
				"liquidityManagers(uint256)": "2037",
				"liquidityTokens(uint256)": "2080",
				"manage(address,uint256)": "infinite",
				"mintRewards(address,uint256)": "infinite",
				"policy()": "1106",
				"pullManagement()": "infinite",
				"pushManagement(address)": "infinite",
				"queue(uint8,address)": "infinite",
				"renounceManagement()": "infinite",
				"repayDebtWithOHM(uint256)": "infinite",
				"repayDebtWithReserve(uint256,address)": "infinite",
				"reserveDepositorQueue(address)": "1236",
				"reserveDepositors(uint256)": "2082",
				"reserveManagers(uint256)": "2061",
				"reserveSpenderQueue(address)": "1235",
				"reserveSpenders(uint256)": "2060",
				"reserveTokenQueue(address)": "1213",
				"reserveTokens(uint256)": "2015",
				"rewardManagerQueue(address)": "1235",
				"rewardManagers(uint256)": "2037",
				"sOHM()": "1127",
				"sOHMQueue()": "1044",
				"toggle(uint8,address,address)": "infinite",
				"totalDebt()": "1086",
				"totalReserves()": "1088",
				"valueOf(address,uint256)": "infinite",
				"valueOfToken(address,uint256)": "infinite",
				"withdraw(uint256,address)": "infinite"
			},
			"internal": {
				"listContains(address[] storage pointer,address)": "infinite",
				"requirements(mapping(address => uint256),mapping(address => bool),address)": "infinite"
			}
		},
		"methodIdentifiers": {
			"LiquidityDepositorQueue(address)": "fff9ee87",
			"LiquidityManagerQueue(address)": "ab319c9a",
			"LiquidityTokenQueue(address)": "8f59c727",
			"OHM()": "a6c41fec",
			"ReserveManagerQueue(address)": "b1bd38b0",
			"auditReserves()": "2b7ce500",
			"blocksNeededForQueue()": "d07f390f",
			"bondCalculator(address)": "1af4da70",
			"debtorBalance(address)": "094a8651",
			"debtorQueue(address)": "cd85641a",
			"debtors(uint256)": "869871bf",
			"deposit(uint256,address,uint256)": "bc157ac1",
			"excessReserves()": "0c3513a8",
			"incurDebt(uint256,address)": "12422d23",
			"isDebtor(address)": "ee4e19a1",
			"isLiquidityDepositor(address)": "a1210a2d",
			"isLiquidityManager(address)": "df89b344",
			"isLiquidityToken(address)": "a569e571",
			"isReserveDepositor(address)": "124154ca",
			"isReserveManager(address)": "ebd83cd8",
			"isReserveSpender(address)": "87d67dff",
			"isReserveToken(address)": "68c31dd5",
			"isRewardManager(address)": "4e83423c",
			"liquidityDepositors(uint256)": "8f6a7b57",
			"liquidityManagers(uint256)": "70a0502a",
			"liquidityTokens(uint256)": "fd1ec010",
			"manage(address,uint256)": "0b0eee30",
			"mintRewards(address,uint256)": "6a20de92",
			"policy()": "0505c8c9",
			"pullManagement()": "5a96ac0a",
			"pushManagement(address)": "46f68ee9",
			"queue(uint8,address)": "e83afee3",
			"renounceManagement()": "089208d8",
			"repayDebtWithOHM(uint256)": "0f70431f",
			"repayDebtWithReserve(uint256,address)": "d796ffb8",
			"reserveDepositorQueue(address)": "932cc8c3",
			"reserveDepositors(uint256)": "6b5e40a7",
			"reserveManagers(uint256)": "0619aff1",
			"reserveSpenderQueue(address)": "c24ad43e",
			"reserveSpenders(uint256)": "437f7912",
			"reserveTokenQueue(address)": "788c6c01",
			"reserveTokens(uint256)": "d031370b",
			"rewardManagerQueue(address)": "fb939588",
			"rewardManagers(uint256)": "b5b1d560",
			"sOHM()": "15079925",
			"sOHMQueue()": "2789de37",
			"toggle(uint8,address,address)": "fbfd393b",
			"totalDebt()": "fc7b9c18",
			"totalReserves()": "8f840ddd",
			"valueOf(address,uint256)": "1eec5a9a",
			"valueOfToken(address,uint256)": "d1b317e5",
			"withdraw(uint256,address)": "00f714ce"
		}
	},
	"abi": [
		{
			"inputs": [
				{
					"internalType": "address",
					"name": "_OHM",
					"type": "address"
				},
				{
					"internalType": "address",
					"name": "_DAI",
					"type": "address"
				},
				{
					"internalType": "uint256",
					"name": "_blocksNeededForQueue",
					"type": "uint256"
				}
			],
			"stateMutability": "nonpayable",
			"type": "constructor"
		},
		{
			"anonymous": false,
			"inputs": [
				{
					"indexed": true,
					"internalType": "enum OlympusTreasury.MANAGING",
					"name": "managing",
					"type": "uint8"
				},
				{
					"indexed": false,
					"internalType": "address",
					"name": "activated",
					"type": "address"
				},
				{
					"indexed": false,
					"internalType": "bool",
					"name": "result",
					"type": "bool"
				}
			],
			"name": "ChangeActivated",
			"type": "event"
		},
		{
			"anonymous": false,
			"inputs": [
				{
					"indexed": true,
					"internalType": "enum OlympusTreasury.MANAGING",
					"name": "managing",
					"type": "uint8"
				},
				{
					"indexed": false,
					"internalType": "address",
					"name": "queued",
					"type": "address"
				}
			],
			"name": "ChangeQueued",
			"type": "event"
		},
		{
			"anonymous": false,
			"inputs": [
				{
					"indexed": true,
					"internalType": "address",
					"name": "debtor",
					"type": "address"
				},
				{
					"indexed": true,
					"internalType": "address",
					"name": "token",
					"type": "address"
				},
				{
					"indexed": false,
					"internalType": "uint256",
					"name": "amount",
					"type": "uint256"
				},
				{
					"indexed": false,
					"internalType": "uint256",
					"name": "value",
					"type": "uint256"
				}
			],
			"name": "CreateDebt",
			"type": "event"
		},
		{
			"anonymous": false,
			"inputs": [
				{
					"indexed": true,
					"internalType": "address",
					"name": "token",
					"type": "address"
				},
				{
					"indexed": false,
					"internalType": "uint256",
					"name": "amount",
					"type": "uint256"
				},
				{
					"indexed": false,
					"internalType": "uint256",
					"name": "value",
					"type": "uint256"
				}
			],
			"name": "Deposit",
			"type": "event"
		},
		{
			"anonymous": false,
			"inputs": [
				{
					"indexed": true,
					"internalType": "address",
					"name": "previousOwner",
					"type": "address"
				},
				{
					"indexed": true,
					"internalType": "address",
					"name": "newOwner",
					"type": "address"
				}
			],
			"name": "OwnershipPulled",
			"type": "event"
		},
		{
			"anonymous": false,
			"inputs": [
				{
					"indexed": true,
					"internalType": "address",
					"name": "previousOwner",
					"type": "address"
				},
				{
					"indexed": true,
					"internalType": "address",
					"name": "newOwner",
					"type": "address"
				}
			],
			"name": "OwnershipPushed",
			"type": "event"
		},
		{
			"anonymous": false,
			"inputs": [
				{
					"indexed": true,
					"internalType": "address",
					"name": "debtor",
					"type": "address"
				},
				{
					"indexed": true,
					"internalType": "address",
					"name": "token",
					"type": "address"
				},
				{
					"indexed": false,
					"internalType": "uint256",
					"name": "amount",
					"type": "uint256"
				},
				{
					"indexed": false,
					"internalType": "uint256",
					"name": "value",
					"type": "uint256"
				}
			],
			"name": "RepayDebt",
			"type": "event"
		},
		{
			"anonymous": false,
			"inputs": [
				{
					"indexed": true,
					"internalType": "uint256",
					"name": "totalReserves",
					"type": "uint256"
				}
			],
			"name": "ReservesAudited",
			"type": "event"
		},
		{
			"anonymous": false,
			"inputs": [
				{
					"indexed": true,
					"internalType": "address",
					"name": "token",
					"type": "address"
				},
				{
					"indexed": false,
					"internalType": "uint256",
					"name": "amount",
					"type": "uint256"
				}
			],
			"name": "ReservesManaged",
			"type": "event"
		},
		{
			"anonymous": false,
			"inputs": [
				{
					"indexed": true,
					"internalType": "uint256",
					"name": "totalReserves",
					"type": "uint256"
				}
			],
			"name": "ReservesUpdated",
			"type": "event"
		},
		{
			"anonymous": false,
			"inputs": [
				{
					"indexed": true,
					"internalType": "address",
					"name": "caller",
					"type": "address"
				},
				{
					"indexed": true,
					"internalType": "address",
					"name": "recipient",
					"type": "address"
				},
				{
					"indexed": false,
					"internalType": "uint256",
					"name": "amount",
					"type": "uint256"
				}
			],
			"name": "RewardsMinted",
			"type": "event"
		},
		{
			"anonymous": false,
			"inputs": [
				{
					"indexed": true,
					"internalType": "address",
					"name": "token",
					"type": "address"
				},
				{
					"indexed": false,
					"internalType": "uint256",
					"name": "amount",
					"type": "uint256"
				},
				{
					"indexed": false,
					"internalType": "uint256",
					"name": "value",
					"type": "uint256"
				}
			],
			"name": "Withdrawal",
			"type": "event"
		},
		{
			"inputs": [
				{
					"internalType": "address",
					"name": "",
					"type": "address"
				}
			],
			"name": "LiquidityDepositorQueue",
			"outputs": [
				{
					"internalType": "uint256",
					"name": "",
					"type": "uint256"
				}
			],
			"stateMutability": "view",
			"type": "function"
		},
		{
			"inputs": [
				{
					"internalType": "address",
					"name": "",
					"type": "address"
				}
			],
			"name": "LiquidityManagerQueue",
			"outputs": [
				{
					"internalType": "uint256",
					"name": "",
					"type": "uint256"
				}
			],
			"stateMutability": "view",
			"type": "function"
		},
		{
			"inputs": [
				{
					"internalType": "address",
					"name": "",
					"type": "address"
				}
			],
			"name": "LiquidityTokenQueue",
			"outputs": [
				{
					"internalType": "uint256",
					"name": "",
					"type": "uint256"
				}
			],
			"stateMutability": "view",
			"type": "function"
		},
		{
			"inputs": [],
			"name": "OHM",
			"outputs": [
				{
					"internalType": "address",
					"name": "",
					"type": "address"
				}
			],
			"stateMutability": "view",
			"type": "function"
		},
		{
			"inputs": [
				{
					"internalType": "address",
					"name": "",
					"type": "address"
				}
			],
			"name": "ReserveManagerQueue",
			"outputs": [
				{
					"internalType": "uint256",
					"name": "",
					"type": "uint256"
				}
			],
			"stateMutability": "view",
			"type": "function"
		},
		{
			"inputs": [],
			"name": "auditReserves",
			"outputs": [],
			"stateMutability": "nonpayable",
			"type": "function"
		},
		{
			"inputs": [],
			"name": "blocksNeededForQueue",
			"outputs": [
				{
					"internalType": "uint256",
					"name": "",
					"type": "uint256"
				}
			],
			"stateMutability": "view",
			"type": "function"
		},
		{
			"inputs": [
				{
					"internalType": "address",
					"name": "",
					"type": "address"
				}
			],
			"name": "bondCalculator",
			"outputs": [
				{
					"internalType": "address",
					"name": "",
					"type": "address"
				}
			],
			"stateMutability": "view",
			"type": "function"
		},
		{
			"inputs": [
				{
					"internalType": "address",
					"name": "",
					"type": "address"
				}
			],
			"name": "debtorBalance",
			"outputs": [
				{
					"internalType": "uint256",
					"name": "",
					"type": "uint256"
				}
			],
			"stateMutability": "view",
			"type": "function"
		},
		{
			"inputs": [
				{
					"internalType": "address",
					"name": "",
					"type": "address"
				}
			],
			"name": "debtorQueue",
			"outputs": [
				{
					"internalType": "uint256",
					"name": "",
					"type": "uint256"
				}
			],
			"stateMutability": "view",
			"type": "function"
		},
		{
			"inputs": [
				{
					"internalType": "uint256",
					"name": "",
					"type": "uint256"
				}
			],
			"name": "debtors",
			"outputs": [
				{
					"internalType": "address",
					"name": "",
					"type": "address"
				}
			],
			"stateMutability": "view",
			"type": "function"
		},
		{
			"inputs": [
				{
					"internalType": "uint256",
					"name": "_amount",
					"type": "uint256"
				},
				{
					"internalType": "address",
					"name": "_token",
					"type": "address"
				},
				{
					"internalType": "uint256",
					"name": "_profit",
					"type": "uint256"
				}
			],
			"name": "deposit",
			"outputs": [
				{
					"internalType": "uint256",
					"name": "send_",
					"type": "uint256"
				}
			],
			"stateMutability": "nonpayable",
			"type": "function"
		},
		{
			"inputs": [],
			"name": "excessReserves",
			"outputs": [
				{
					"internalType": "uint256",
					"name": "",
					"type": "uint256"
				}
			],
			"stateMutability": "view",
			"type": "function"
		},
		{
			"inputs": [
				{
					"internalType": "uint256",
					"name": "_amount",
					"type": "uint256"
				},
				{
					"internalType": "address",
					"name": "_token",
					"type": "address"
				}
			],
			"name": "incurDebt",
			"outputs": [],
			"stateMutability": "nonpayable",
			"type": "function"
		},
		{
			"inputs": [
				{
					"internalType": "address",
					"name": "",
					"type": "address"
				}
			],
			"name": "isDebtor",
			"outputs": [
				{
					"internalType": "bool",
					"name": "",
					"type": "bool"
				}
			],
			"stateMutability": "view",
			"type": "function"
		},
		{
			"inputs": [
				{
					"internalType": "address",
					"name": "",
					"type": "address"
				}
			],
			"name": "isLiquidityDepositor",
			"outputs": [
				{
					"internalType": "bool",
					"name": "",
					"type": "bool"
				}
			],
			"stateMutability": "view",
			"type": "function"
		},
		{
			"inputs": [
				{
					"internalType": "address",
					"name": "",
					"type": "address"
				}
			],
			"name": "isLiquidityManager",
			"outputs": [
				{
					"internalType": "bool",
					"name": "",
					"type": "bool"
				}
			],
			"stateMutability": "view",
			"type": "function"
		},
		{
			"inputs": [
				{
					"internalType": "address",
					"name": "",
					"type": "address"
				}
			],
			"name": "isLiquidityToken",
			"outputs": [
				{
					"internalType": "bool",
					"name": "",
					"type": "bool"
				}
			],
			"stateMutability": "view",
			"type": "function"
		},
		{
			"inputs": [
				{
					"internalType": "address",
					"name": "",
					"type": "address"
				}
			],
			"name": "isReserveDepositor",
			"outputs": [
				{
					"internalType": "bool",
					"name": "",
					"type": "bool"
				}
			],
			"stateMutability": "view",
			"type": "function"
		},
		{
			"inputs": [
				{
					"internalType": "address",
					"name": "",
					"type": "address"
				}
			],
			"name": "isReserveManager",
			"outputs": [
				{
					"internalType": "bool",
					"name": "",
					"type": "bool"
				}
			],
			"stateMutability": "view",
			"type": "function"
		},
		{
			"inputs": [
				{
					"internalType": "address",
					"name": "",
					"type": "address"
				}
			],
			"name": "isReserveSpender",
			"outputs": [
				{
					"internalType": "bool",
					"name": "",
					"type": "bool"
				}
			],
			"stateMutability": "view",
			"type": "function"
		},
		{
			"inputs": [
				{
					"internalType": "address",
					"name": "",
					"type": "address"
				}
			],
			"name": "isReserveToken",
			"outputs": [
				{
					"internalType": "bool",
					"name": "",
					"type": "bool"
				}
			],
			"stateMutability": "view",
			"type": "function"
		},
		{
			"inputs": [
				{
					"internalType": "address",
					"name": "",
					"type": "address"
				}
			],
			"name": "isRewardManager",
			"outputs": [
				{
					"internalType": "bool",
					"name": "",
					"type": "bool"
				}
			],
			"stateMutability": "view",
			"type": "function"
		},
		{
			"inputs": [
				{
					"internalType": "uint256",
					"name": "",
					"type": "uint256"
				}
			],
			"name": "liquidityDepositors",
			"outputs": [
				{
					"internalType": "address",
					"name": "",
					"type": "address"
				}
			],
			"stateMutability": "view",
			"type": "function"
		},
		{
			"inputs": [
				{
					"internalType": "uint256",
					"name": "",
					"type": "uint256"
				}
			],
			"name": "liquidityManagers",
			"outputs": [
				{
					"internalType": "address",
					"name": "",
					"type": "address"
				}
			],
			"stateMutability": "view",
			"type": "function"
		},
		{
			"inputs": [
				{
					"internalType": "uint256",
					"name": "",
					"type": "uint256"
				}
			],
			"name": "liquidityTokens",
			"outputs": [
				{
					"internalType": "address",
					"name": "",
					"type": "address"
				}
			],
			"stateMutability": "view",
			"type": "function"
		},
		{
			"inputs": [
				{
					"internalType": "address",
					"name": "_token",
					"type": "address"
				},
				{
					"internalType": "uint256",
					"name": "_amount",
					"type": "uint256"
				}
			],
			"name": "manage",
			"outputs": [],
			"stateMutability": "nonpayable",
			"type": "function"
		},
		{
			"inputs": [
				{
					"internalType": "address",
					"name": "_recipient",
					"type": "address"
				},
				{
					"internalType": "uint256",
					"name": "_amount",
					"type": "uint256"
				}
			],
			"name": "mintRewards",
			"outputs": [],
			"stateMutability": "nonpayable",
			"type": "function"
		},
		{
			"inputs": [],
			"name": "policy",
			"outputs": [
				{
					"internalType": "address",
					"name": "",
					"type": "address"
				}
			],
			"stateMutability": "view",
			"type": "function"
		},
		{
			"inputs": [],
			"name": "pullManagement",
			"outputs": [],
			"stateMutability": "nonpayable",
			"type": "function"
		},
		{
			"inputs": [
				{
					"internalType": "address",
					"name": "newOwner_",
					"type": "address"
				}
			],
			"name": "pushManagement",
			"outputs": [],
			"stateMutability": "nonpayable",
			"type": "function"
		},
		{
			"inputs": [
				{
					"internalType": "enum OlympusTreasury.MANAGING",
					"name": "_managing",
					"type": "uint8"
				},
				{
					"internalType": "address",
					"name": "_address",
					"type": "address"
				}
			],
			"name": "queue",
			"outputs": [
				{
					"internalType": "bool",
					"name": "",
					"type": "bool"
				}
			],
			"stateMutability": "nonpayable",
			"type": "function"
		},
		{
			"inputs": [],
			"name": "renounceManagement",
			"outputs": [],
			"stateMutability": "nonpayable",
			"type": "function"
		},
		{
			"inputs": [
				{
					"internalType": "uint256",
					"name": "_amount",
					"type": "uint256"
				}
			],
			"name": "repayDebtWithOHM",
			"outputs": [],
			"stateMutability": "nonpayable",
			"type": "function"
		},
		{
			"inputs": [
				{
					"internalType": "uint256",
					"name": "_amount",
					"type": "uint256"
				},
				{
					"internalType": "address",
					"name": "_token",
					"type": "address"
				}
			],
			"name": "repayDebtWithReserve",
			"outputs": [],
			"stateMutability": "nonpayable",
			"type": "function"
		},
		{
			"inputs": [
				{
					"internalType": "address",
					"name": "",
					"type": "address"
				}
			],
			"name": "reserveDepositorQueue",
			"outputs": [
				{
					"internalType": "uint256",
					"name": "",
					"type": "uint256"
				}
			],
			"stateMutability": "view",
			"type": "function"
		},
		{
			"inputs": [
				{
					"internalType": "uint256",
					"name": "",
					"type": "uint256"
				}
			],
			"name": "reserveDepositors",
			"outputs": [
				{
					"internalType": "address",
					"name": "",
					"type": "address"
				}
			],
			"stateMutability": "view",
			"type": "function"
		},
		{
			"inputs": [
				{
					"internalType": "uint256",
					"name": "",
					"type": "uint256"
				}
			],
			"name": "reserveManagers",
			"outputs": [
				{
					"internalType": "address",
					"name": "",
					"type": "address"
				}
			],
			"stateMutability": "view",
			"type": "function"
		},
		{
			"inputs": [
				{
					"internalType": "address",
					"name": "",
					"type": "address"
				}
			],
			"name": "reserveSpenderQueue",
			"outputs": [
				{
					"internalType": "uint256",
					"name": "",
					"type": "uint256"
				}
			],
			"stateMutability": "view",
			"type": "function"
		},
		{
			"inputs": [
				{
					"internalType": "uint256",
					"name": "",
					"type": "uint256"
				}
			],
			"name": "reserveSpenders",
			"outputs": [
				{
					"internalType": "address",
					"name": "",
					"type": "address"
				}
			],
			"stateMutability": "view",
			"type": "function"
		},
		{
			"inputs": [
				{
					"internalType": "address",
					"name": "",
					"type": "address"
				}
			],
			"name": "reserveTokenQueue",
			"outputs": [
				{
					"internalType": "uint256",
					"name": "",
					"type": "uint256"
				}
			],
			"stateMutability": "view",
			"type": "function"
		},
		{
			"inputs": [
				{
					"internalType": "uint256",
					"name": "",
					"type": "uint256"
				}
			],
			"name": "reserveTokens",
			"outputs": [
				{
					"internalType": "address",
					"name": "",
					"type": "address"
				}
			],
			"stateMutability": "view",
			"type": "function"
		},
		{
			"inputs": [
				{
					"internalType": "address",
					"name": "",
					"type": "address"
				}
			],
			"name": "rewardManagerQueue",
			"outputs": [
				{
					"internalType": "uint256",
					"name": "",
					"type": "uint256"
				}
			],
			"stateMutability": "view",
			"type": "function"
		},
		{
			"inputs": [
				{
					"internalType": "uint256",
					"name": "",
					"type": "uint256"
				}
			],
			"name": "rewardManagers",
			"outputs": [
				{
					"internalType": "address",
					"name": "",
					"type": "address"
				}
			],
			"stateMutability": "view",
			"type": "function"
		},
		{
			"inputs": [],
			"name": "sOHM",
			"outputs": [
				{
					"internalType": "address",
					"name": "",
					"type": "address"
				}
			],
			"stateMutability": "view",
			"type": "function"
		},
		{
			"inputs": [],
			"name": "sOHMQueue",
			"outputs": [
				{
					"internalType": "uint256",
					"name": "",
					"type": "uint256"
				}
			],
			"stateMutability": "view",
			"type": "function"
		},
		{
			"inputs": [
				{
					"internalType": "enum OlympusTreasury.MANAGING",
					"name": "_managing",
					"type": "uint8"
				},
				{
					"internalType": "address",
					"name": "_address",
					"type": "address"
				},
				{
					"internalType": "address",
					"name": "_calculator",
					"type": "address"
				}
			],
			"name": "toggle",
			"outputs": [
				{
					"internalType": "bool",
					"name": "",
					"type": "bool"
				}
			],
			"stateMutability": "nonpayable",
			"type": "function"
		},
		{
			"inputs": [],
			"name": "totalDebt",
			"outputs": [
				{
					"internalType": "uint256",
					"name": "",
					"type": "uint256"
				}
			],
			"stateMutability": "view",
			"type": "function"
		},
		{
			"inputs": [],
			"name": "totalReserves",
			"outputs": [
				{
					"internalType": "uint256",
					"name": "",
					"type": "uint256"
				}
			],
			"stateMutability": "view",
			"type": "function"
		},
		{
			"inputs": [
				{
					"internalType": "address",
					"name": "_token",
					"type": "address"
				},
				{
					"internalType": "uint256",
					"name": "_amount",
					"type": "uint256"
				}
			],
			"name": "valueOf",
			"outputs": [
				{
					"internalType": "uint256",
					"name": "value_",
					"type": "uint256"
				}
			],
			"stateMutability": "view",
			"type": "function"
		},
		{
			"inputs": [
				{
					"internalType": "address",
					"name": "_token",
					"type": "address"
				},
				{
					"internalType": "uint256",
					"name": "_amount",
					"type": "uint256"
				}
			],
			"name": "valueOfToken",
			"outputs": [
				{
					"internalType": "uint256",
					"name": "value_",
					"type": "uint256"
				}
			],
			"stateMutability": "view",
			"type": "function"
		},
		{
			"inputs": [
				{
					"internalType": "uint256",
					"name": "_amount",
					"type": "uint256"
				},
				{
					"internalType": "address",
					"name": "_token",
					"type": "address"
				}
			],
			"name": "withdraw",
			"outputs": [],
			"stateMutability": "nonpayable",
			"type": "function"
		}
	]
}